:020000040800F2
:1000000000000120F12B0008811E0008831E00085B
:10001000851E0008871E0008891E000800000000D9
:100020000000000000000000000000008B1E00081F
:100030008D1E0008000000008F1E00081505000836
:10004000412C0008412C0008412C0008412C0008DC
:10005000412C0008412C0008412C0008412C0008CC
:10006000412C0008412C0008412C0008412C0008BC
:10007000411E0008651E0008792200089D22000824
:100080002514000849140008412C0008412C0008E0
:10009000412C0008412C0008412C0008CD0E00081E
:1000A000412C0008412C0008412C0008412C00087C
:1000B000412C00080000000000000000412C000856
:1000C000412C00080000000000000000412C000846
:1000D0000000000025220008412C0008000000005C
:1000E000412C0008412C0008000000000000000026
:1000F0000000000000000000000000000000000000
:10010000000000000000000000000000412C00087A
:100110000000000000000000412C0008412C0008F5
:10012000412C0008412C0008412C0008412C0008FB
:10013000412C00080000000000000000000000004A
:10014000412C0008412C0008412C0008412C0008DB
:10015000412C0008412C0008412C0008412C0008CB
:10016000412C0008412C0008412C00080000000030
:10017000412C0008412C0008000000000000000095
:10018000412C0008412C0008412C00080000000010
:1001900010B5054C237833B9044B13B10448AFF3C1
:1001A00000800123237010BD7800002000000000B3
:1001B000D04A000808B5034B1BB103490348AFF30D
:1001C000008008BD000000007C000020D04A00082C
:1001D000034613F8012B002AFBD1181A0138704787
:1001E00001F0FF01102A2BDB10F0070F08D010F8E8
:1001F000013B013A8B422DD010F0070F42B3F6D1EC
:10020000F0B441EA012141EA014122F007047FF004
:1002100000070023F0E80256083C85EA010586EA5B
:10022000010685FA47F5A3FA87F586FA47F6A5FA97
:1002300087F68EB9EED1F0BC01F0FF0102F00702A3
:1002400032B110F8013B013A83EA010313B1F8D14E
:100250000020704701387047002D06BF354603382F
:10026000073815F0010F07D1013015F4807F02BF68
:10027000013015F4C03F0130F0BC0138704700BFB9
:1002800070B59EB004464FF4007002F00DFD0546B7
:10029000C4F880000D4E0FCE20606160A260E36064
:1002A0000B4E0FCE28606960AA60EB603068286151
:1002B00033792B75782204F11001684602F0FCFCBA
:1002C00094E80F0000F054FD1EB070BD144B000800
:1002D000244B000870B59EB004463F4B1B782BB9E9
:1002E0003E4B1B78002B39D11EB070BD3C4D3D4EAE
:1002F00033682B6000F0C2F830602B68C01A3A4BAC
:100300001860354D00232B70344B01221A7000F019
:10031000ABFD364B1B78A888354A02EBC3029080B0
:10032000E988D180ABB1013B314A02EBC30292882C
:10033000904205D12E4A02EBC303DB88994203D0D9
:100340004FF4784201F0BCFA284A13780133137055
:10035000C6E74FF4784201F0B3FAF5E700F08EF803
:10036000244B18601F4B1B68C01A1F4B1B68B0EB57
:10037000830F03D81D4B1B78632B15D91E4B1A789E
:100380001E4B1A700026154B1E70184D2978184800
:1003900001F096FFC4F88000FFF71AFFA4F884006C
:1003A0002E70174B01221A70164B1B78002B9BD016
:1003B000134B1B78002B97D0782204F1100168466C
:1003C00002F07AFC94E80F0000F07EFC00230D4A56
:1003D00013700B4A137087E7DC0D0020A900002082
:1003E000A40000209C00002094000020CC030020EA
:1003F000AC00002098000020A8000020A0000020F1
:10040000AA000020D003002082B0194B9A6C42F061
:1004100001029A649B6C03F001030193019B15494F
:10042000CB68154B002283F80C234FF480501860E2
:10043000C86883F80D234FF400501860C86883F82B
:100440000E234FF480401860C86883F80F234FF4E0
:1004500000401860C86883F810234FF4803018609B
:10046000C96883F811234FF400321A6002B0704754
:100470000010024000ED00E000E100E0014B1868D0
:10048000704700BFD80300200B4B5A68002307E0D9
:10049000801A0A4A1268B3FBF2FC02FB1C330A46BC
:1004A000054949688A1A1344044A1268B3FBF2F2F8
:1004B0009042EDD8704700BF001000E0DC03002040
:1004C00010B504E04FF47A70FFF7DEFF2046441EBB
:1004D0000028F7D110BD00000A4B1B680A4AA2FB96
:1004E00003239B0C094A1360094AD2F8FC3043F0FD
:1004F0008073C2F8FC30A2F55D42136843F001033B
:10050000136070470400002083DE1B43DC030020DF
:1005100000ED00E008B51C4B5A681C4B1A601C4AE1
:100520001368013313601B4A138801339BB2138095
:10053000194A01211170194AA2FB0312D20802EBD9
:1005400082025100591A89B211B9154A012111705C
:10055000144AA2FB03125209642101FB123292B227
:1005600012B9114A01211170104AA2FB031292091B
:100570004FF47A7101FB12339BB213B90C4B012279
:100580001A7001F0F1FE08BD001000E0D403002055
:10059000D8030020D2030020CD030020CDCCCCCC4A
:1005A000CE0300201F85EB51CF030020D34D6210F6
:1005B000D0030020B1F5806F01D90020704738B515
:1005C00005460C460A460146044802F075FB2146E2
:1005D000284601F0EDFD012038BD00BF29080020AC
:1005E00010B50446FFF7F4FD81B22046FFF7E2FFA5
:1005F00010BD00000CB42DE9F04782B000AF97F8B1
:10060000285000293ED08146884635B90020083759
:10061000BD46BDE8F04702B0704700230B7007F1FC
:100620002C027A60AA00073202F4FF62ADEB020DE1
:100630006E46AB4208D27A68111D7960126846F89E
:1006400023200133DBB2F4E74FF0000ACA4517D28A
:1006500044F62060FFF718FF0024AC420DD256F894
:100660002410094802F092FD10B90134E4B2F4E715
:10067000013488F800400120C9E70AF1140AE5E7CF
:100680000020C4E70020C2E72906002010B5064C70
:100690004FF400720021601C02F01CFB0023A4F840
:1006A000023601F0AFFD10BD2806002008B54FF45A
:1006B00080620021014802F00DFB08BD29080020DE
:1006C00008B5084BB3F80226197813445970B2F5EF
:1006D000007F03D20132034BA3F8022601F092FD02
:1006E00008BD00BF2806002010B584B0FFF7CEFF7C
:1006F0001048FFF775FF044610B9204604B010BD3E
:100700000D4B00930D4B02220DF10F014FF47A7047
:10071000FFF770FF04460028EFD09DF80F30022B42
:1007200001D10024E9E7FFF7B1FFFFF7BFFF01F0B8
:1007300069FDE2E73C4B0008484B0008444B0008C9
:1007400070B584B005460E461446FFF79FFF64B1AE
:10075000009433462A461249124802F057FC1148C9
:10076000FFF73EFF40B904B070BD33462A460E493C
:100770000C4802F04BFCF2E70C4B01930C4B00933E
:100780000C4B03220DF10F0146F2A810FFF732FFC8
:100790000028E8D09DF80F30012BE4D90020E2E7D3
:1007A000684B000829080020504B00088C4B0008BB
:1007B000984B0008844B0008F0B585B0FFF766FF42
:1007C000284C294B07CBC4F80102C4F80512C4F821
:1007D000092204F20120FFF703FF044610B9204666
:1007E00005B0F0BD214B0093214B02220DF10F010A
:1007F0004FF47A70FFF7FEFE04460028EFD09DF814
:100800000F30022B29D01B491B4802F0BFFC0546C4
:1008100088B102352221284602F098FC471B114E70
:100820003A46294606F2266002F09DFC3E4400232B
:1008300086F82636D3E711490F4802F0A7FC70B1BD
:10084000084B0022C3F82626C3F82A26C3F82E2612
:10085000C3F83226C3F83626C1E70024BFE70024D8
:10086000BDE700BF28060020A44B0008484B000845
:10087000444B0008B04B000829060020B44B000888
:1008800010B586B00446FFF701FF022C15D0032CEB
:1008900020D1274AD3680293936801935368009349
:1008A00092F9023012782349234802F0AFFB224824
:1008B000FFF796FEC8B906B010BD1D4A93680193B4
:1008C0005368009392F9023012781C491A4802F0DA
:1008D0009DFBECE7164A5368009392F902301278B8
:1008E0001749154802F092FBE1E7164B0093164BAF
:1008F00002220DF117014FF47A70FFF77BFE0028FA
:10090000D9D09DF81730022B01D10020D3E70F4B2F
:1009100001220DF117010E48FFF76CFE18B9044BC8
:1009200000225A70C7E7024B01225A70C3E700BF8A
:1009300008060020BC4B000829080020E44B0008F2
:10094000044C0008484B0008444B0008204C0008A9
:10095000C0D4010030B589B0FFF798FE224D234C7A
:100960000FCCC5F80102C5F80512C5F80922C5F873
:100970000D322388A5F8113205F20120FFF730FE71
:10098000044610B9204609B030BD194B0093194BED
:1009900002220DF11F014FF47A70FFF72BFE04467F
:1009A0000028EFD09DF81F30022B01D10024E9E789
:1009B0001149681C02F0EAFB104A02F11803049383
:1009C00002F11C03039302F11B03029302F11A03C9
:1009D000019302F11603009302F113031032084948
:1009E00002F034FBCEE700BF28060020304C0008A0
:1009F000484B0008444B0008444C000808060020FF
:100A0000544C000810B50C4C01232370F923A3703B
:100A10000A4B636000236370FFF79CFF228B40F258
:100A2000E6739A4201D9012010BD0120FFF728FF8B
:100A3000FFF790FFF7E700BF08060020784C00089A
:100A400010B586B0FFF722FE154A164C02F500736A
:100A5000039302F5A073029302F580730193009251
:100A600092F8213292F824220F49204602F0CEFA61
:100A70002046FFF7B5FD08B906B010BD0B4B00933B
:100A80000B4B02220DF117014FF47A70FFF7B2FD04
:100A90000028F1D09DF81730022BEDD10020EBE7B4
:100AA000E003002029080020884C0008484B00087B
:100AB000444B000830B585B01D4C002384F8263225
:100AC000FFF7E4FDB4F8223294F82522194D019283
:100AD000009304F5C07394F824221749284602F0C5
:100AE00095FA2846FFF77CFD08B905B030BD134BD9
:100AF0000093134B02220DF10F014FF47A70FFF7B0
:100B000079FD0028F1D09DF80F30022B01D1002093
:100B1000EBE70C4B01220DF10F0146F2A810FFF795
:100B200069FD0028E1D0012284F82622DDE700BF1C
:100B3000E003002029080020B84C0008484B0008BA
:100B4000444B0008D44C000810B586B0FFF79EFD5A
:100B5000294C04F2012C294B07CBC4F80102C4F83C
:100B60000512C4F809221A889B78A4F80D2284F88B
:100B70000F326046FFF734FD044610B9204606B038
:100B800010BD1F4B00931F4B02220DF117014FF4B4
:100B90007A70FFF72FFD04460028EFD09DF817303C
:100BA000022B01D10024E9E71749184802F0EEFAB8
:100BB000174A02F22523029302F22223019302F53F
:100BC000C073009302F2212302F50872114902F06A
:100BD0003DFA70B10E4B93F82032032B04D90C4B25
:100BE000012283F82622C9E7094B002283F8262236
:100BF000C4E70024C2E700BF28060020E44C000838
:100C0000484B0008444B0008F44C0008290600201B
:100C1000E0030020004D000870B582B0FFF794FF9C
:100C2000224B93F8263213B1012002B070BD1F4D44
:100C3000002685F82462052385F821321C4B009399
:100C40000A3B1C4A1C49284602F0E0F905F580736E
:100C50001A4A92E8030083E80300194A05F5A073D5
:100C600007CA03C323F8022B120C1A7005F5C07CC7
:100C7000144C0FCCACE80F000FCCACE80F0094E89C
:100C80000F00ACE80700ACF8003042F2B323A5F83F
:100C90002232012385F8253285F80062FFF7D0FE65
:100CA000FFF708FFFFF750FFBEE700BFE00300209B
:100CB0009E75FF1F9075FF1F284D0008304D0008DE
:100CC000384D0008444D000884B010B584B006AC1F
:100CD00084E80F00FFF7DAFCBDF89C301D4C009350
:100CE00006AB1D4A92F824221C49204602F08EF9D8
:100CF0002046FFF775FC20B904B0BDE8104004B0F1
:100D00007047174B0093174B02220DF10F014FF460
:100D10007A70FFF76FFC0028EED09DF80F30022BA1
:100D200001D10020E8E7BDF89C10269801F040FAB8
:100D30000D4B00930D4B02220DF10F014FF47A7011
:100D4000FFF758FC0028D7D09DF80F30022BD3D1E5
:100D50000020D1E729080020E0030020744D00089E
:100D6000484B0008444B0008A04D0008944D000873
:100D700084B010B584B006AC84E80F00FFF786FCA1
:100D8000114C06AB114A92F824221149204602F078
:100D90003DF92046FFF724FC20B904B0BDE810401F
:100DA00004B070470B4B00930B4B02220DF10F0167
:100DB0004FF47A70FFF71EFC0028EED09DF80F303C
:100DC000022BEAD10020E8E729080020E0030020F8
:100DD000B04D0008484B0008444B000810B582B0E5
:100DE0004FF42253ADF80430022201A9382000F05C
:100DF00045FAA424ADF80440022201A9382000F0ED
:100E00003DFA01230DF103022146382000F088FA53
:100E10009DF80310124802F05BF8012301AAA821F3
:100E2000382000F07DFA9DF80430112B02D000200C
:100E300002B010BD012301AAA321382000F070FAEE
:100E40009DF80430062B05D0362B03D0642B01D03F
:100E50000020EDE7034B4FF400021A600120E7E7A2
:100E6000C84D000800E100E000B585B010236A46D7
:100E70000021382000F054FA9DF8023003F00F03EF
:100E8000114A5370013BDBB2012B02D913460022F9
:100E90005A709DF803301B0203F470639DF8042020
:100EA0001343C3F1F0030849CB809DF805201302DA
:100EB00003F470639DF8060003438B8012098A7067
:100EC00005B05DF804FB00BFDC0D00200D4B5B6935
:100ED00013F0200F00D170470A4B20225A610A4BB1
:100EE0001B6913F0200F03D1084B01221A707047C1
:100EF000054B1B6913F0200FEDD0044B00221A7034
:100F0000E9E700BF0004014000040048DC0D0020B8
:100F100070B58CB0002506950795089509950A953A
:100F20000B95484CE36C43F00103E364E36C03F07E
:100F300001030293029BE36C43F00203E364E36C5E
:100F400003F002030193019B4FF090461823B36214
:100F50000693012307930323089302230A9306A908
:100F6000304601F039FB1023B361039504950595D4
:100F7000E36C43F00203E364E36C03F002030093C9
:100F8000009B314BDA6822F0F002F02393FAA3F3CE
:100F9000002B4ED0B3FA83F3012101FA03F313437C
:100FA000294AD360202403948DF8141002238DF86D
:100FB000163003A801F042FA244BDB6894FAA4F43B
:100FC000002C38D0B4FA84F46400032202FA04F44A
:100FD00023EA0404202393FAA3F373B3B3FA83F34D
:100FE0005B00012202FA03F32343184AD36012681C
:100FF000202393FAA3F313B3B3FA83F35B00032123
:1010000001FA03F322EA0303202292FAA2F20F4A22
:1010100013600F4BDB680F4B002183F81713136825
:1010200023F0C0031360136843F0400313600CB057
:1010300070BD2023B0E72024C6E72023D0E720237B
:10104000DCE700BF0010024000000140000400483F
:1010500000ED00E000E100E070B590B07E4BDB6891
:101060007E4A002382F81F334FF00041116009933C
:101070000A930B930C930D930E930F930393049386
:101080000593069307930893754CD4F8883023F49E
:101090004053C4F88830E36C43F00203E364E36C2C
:1010A00003F002030293029BC026039602230493DB
:1010B0000323059301230693079304230893694DA3
:1010C00003A9284601F088FAAE61A36D43F400132A
:1010D000A365A36D03F400130193019B624BDA6EC9
:1010E00042F01002DA66DA6E22F02002DA66DA6E78
:1010F00022F04002DA66DA6E42F08002DA66DA6ED8
:1011000022F44072DA66DA6E22F44062DA66574AF6
:101110005A67DA6E42F44052DA66D3F8A82022F415
:1011200070024FF4700393FAA3F3002B00F08F804A
:10113000B3FA83F3032101FA03F31A434A4BC3F8CA
:10114000A820D3F8802022F01002C3F88020D3F822
:10115000802022F02002C3F88020D3F8802022F0E3
:101160004002C3F88020D3F8802042F08002C3F808
:101170008020D3F8802022F44072C3F88020D3F876
:10118000802022F44062C3F88020394AC3F88820C6
:10119000D3F8802042F44052C3F88020D3F8A8202E
:1011A00022F070624FF0706393FAA3F3002B50D0DB
:1011B000B3FA83F3032101FA03F31A432A4BC3F86A
:1011C000A820DA6E42F00202DA66DA6E42F0080215
:1011D000DA66D3F8802042F00202C3F88020D3F808
:1011E000802042F00802C3F88020224C236823F0BC
:1011F00001032360636843F000736360E36823F4D2
:101200000043E360236823F400232360236823F46E
:101210000033236000230993174A0A920B930C931F
:101220000D930E930F9309A9204601F094FAE368F9
:1012300023F4FF6323F00603E360236843F4804351
:101240002360236843F40043236010B070BD202363
:1012500070E72023AEE700BF00ED00E000E100E012
:1012600000100240000400480000024028540040E2
:101270002454004000540040EC9C901010B5254BC5
:1012800005241C70244CE36E23F00103E366224B1B
:10129000DB6E13F0010FFAD11F4B1A679967D96EF5
:1012A00041F00101D966A3F5D633596821F47F7165
:1012B00021F003015960596841EA400159605968B9
:1012C00021F480615960596821F47F01596059689F
:1012D00041EA02425A605A6842F000725A605A6803
:1012E00042F400525A600D4B1B7873B94FF0E02363
:1012F0001B6913F4803FF6D0064A1378591E11700B
:10130000002BF0D100F074FBEDE7044B00221A70C3
:1013100010BD00BFE40D002000000240E60D0020DB
:1013200030B482B08DF807103A4CE16E21F0010123
:10133000E1663849C96E11F0010FFAD1354901242F
:101340000C670DF107048C67CC6E44F00104CC6689
:10135000A1F5D6314C6824F47F7424F003044C606A
:101360004D68440045EA40004860486820F48060C9
:101370004860486820F47F004860486840F4803046
:101380004860486840F000704860486840F4005089
:101390004860214909780029FBD01F4900200870C6
:1013A0001C48D0F8801021F00101C0F880101949C4
:1013B000D1F8801011F0010FF9D11649C1F884302D
:1013C000C1F88C20D1F8802042F00102C1F88020C1
:1013D000124A516821435160516841F48061516063
:1013E000516821F47F015160516841EA0343536021
:1013F000536843F000735360536843F400535360E1
:10140000074B1B78002BFBD0054B00221A7002B053
:1014100030BC704700000240E60D00200054004040
:10142000E50D0020064B1B6813F4001F07D0044A8B
:10143000536843F400135360024B01221A70704743
:1014400000000240E60D0020064B1B6813F0007FF1
:1014500007D0044A536843F000735360024B0122E3
:101460001A70704700000240E50D002010B582B0F0
:101470008DF807004FF09044A36943F40023A36163
:10148000A36943F48013A361012205490DF107000C
:1014900000F0A0FCA36943F01003A36102B010BDEB
:1014A000E80D002010B50A464FF09044A36943F0C0
:1014B0000803A361A36943F48013A361034900F007
:1014C00089FCA36943F01003A36110BDE70D002060
:1014D000F0B583B007460D4616461C462A20FFF796
:1014E000C5FF3B0A8DF804308DF80570330A8DF87E
:1014F00006308DF8076004210DEB0100FFF7D2FFE5
:101500002B20FFF7B3FF2B0A8DF804308DF8055020
:10151000230A8DF806308DF8074004210DEB0100F9
:10152000FFF7C0FF2C20FFF7A1FF03B0F0BD0000C4
:1015300010B50B4CA36943F40033A361C820FEF738
:10154000BFFF4FF09042936943F480139361C8202A
:10155000FEF7B6FFA36943F00203A36110BD00BF0D
:101560000004004810B582B004463620FFF77EFF25
:101570000120FEF7A5FF032C12D8DFE804F00213C8
:10158000233348238DF8073001210DF10700FFF7C1
:1015900089FF1C4BF0221A801B4B4FF4A0721A805B
:1015A00002B010BD28238DF8073001210DF107008E
:1015B000FFF778FF134B4FF4A0721A80124BF02202
:1015C0001A80EDE788238DF8073001210DF107001F
:1015D000FFF768FF0B4BF0221A800B4B4FF4A07201
:1015E0001A80DDE7E8238DF8073001210DF10700AF
:1015F000FFF758FF034B4FF4A0721A80024BF02202
:101600001A80CDE7020000200000002030B585B030
:10161000FFF78EFF4FF09042936943F01003936100
:101620000120FFF723FF4FF47A70FEF749FFCB202C
:10163000FFF71CFF6C4C94E8030000908DF8041039
:1016400005216846FFF72EFFCF20FFF70FFFA368A5
:10165000ADF800301B0C8DF8023003216846FFF70F
:1016600021FFE820FFF702FFE368ADF800301B0C14
:101670008DF8023003216846FFF714FFEA20FFF7D8
:10168000F5FE0025ADF8005002216846FFF70AFF7D
:10169000ED20FFF7EBFE554B009304216846FFF762
:1016A00001FFF720FFF7E2FE20238DF80030012133
:1016B0006846FFF7F7FEC020FFF7D8FE23238DF81A
:1016C000003001216846FFF7EDFEC120FFF7CEFE96
:1016D00010238DF8003001216846FFF7E3FEC52096
:1016E000FFF7C4FE42F63E03ADF800300221684623
:1016F000FFF7D8FEC720FFF7B9FE86238DF800302C
:1017000001216846FFF7CEFE3620FFF7AFFE4823E3
:101710008DF8003001216846FFF7C4FE3A20FFF73C
:10172000A5FE55238DF8003001216846FFF7BAFE6B
:10173000B120FFF79BFE4FF4C053ADF800300221FB
:101740006846FFF7AFFEB620FFF790FE284B1B68F8
:10175000ADF800301B0C8DF8023003216846FFF70E
:10176000A1FEF220FFF782FE8DF8005001216846AD
:10177000FFF798FE2620FFF779FE01218DF8001073
:101780006846FFF78FFEE020FFF770FE194BEC462E
:101790000FCBACE807002CF8023B1B0C8CF8003098
:1017A0000F216846FFF77EFEE120FFF75FFEEC4663
:1017B000103494E80F00ACE807002CF8023B1B0C37
:1017C0008CF800300F216846FFF76CFE1120FFF700
:1017D0004DFE7820FEF774FE2920FFF747FE032018
:1017E000FFF7C0FE05B030BDE84A0008640312816F
:1017F000D84D0008DC4D00082DE9F84300AF0C4639
:101800004E0047F22F53B3EB410F01D247F2305451
:10181000010AE31D23F00703ADEB030D6D46002322
:1018200003E0E9545A1CA8540233A342F9D3B6FB8F
:10183000F4F804FB18694FF090439A6942F00802EB
:101840009A619A6942F480129A61A6420BD2B9F168
:10185000000F12D14FF09042936943F0100393614F
:10186000BD46BDE8F88300264645F0D2224606492B
:10187000284600F0AFFA0136F6E74A460249284604
:1018800000F0A8FAE6E700BFE90D002070B50446B5
:10189000094E3288094D2B889BB292B2002108462E
:1018A000FFF716FE33889BB2298889B203FB01F14A
:1018B0002046FFF7A1FF70BD0200002000000020BD
:1018C000234B1B889BB2834240D970B584B0044639
:1018D0000D4616461F4B1B889BB28B4201D804B0A5
:1018E00070BD2A20FFF7C2FD230A8DF80C30E3B249
:1018F0008DF80D30013424128DF80E4001338DF82F
:101900000F30042103A8FFF7CDFD2B20FFF7AEFD1C
:101910002B0A8DF80830EBB28DF8093001352D1205
:101920008DF80A5001338DF80B30042102A8FFF71F
:10193000B9FD2C20FFF79AFD330A8DF804308DF89D
:101940000560022101A8FFF7ADFDC8E7704700BFA1
:101950000200002000000020B0F5A07F44D2F8B5BE
:1019600015461C46EF2906D88318B3F5A07F02DC84
:101970000B19F02B00DDF8BD821892B29BB2013B2F
:10198000013A9BB292B2FFF7A3FD04FB05F35900A5
:1019900047F22F52B2EB430F0CD2144DA5FB013589
:1019A0006E0BC5F3473547F2305303FB1616B7B23B
:1019B00000240CE00698FFF775FDDCE747F2305194
:1019C000069B01FB0430FFF76DFD0134E4B2AC422D
:1019D000F4D3002FCFD0B1B247F23050069B00FBBA
:1019E0000430FFF75FFDC6E7704700BF73B2E745FD
:1019F000024A936943F0080393617047000400486A
:101A000072B6FEE708B5324A136823F0070343F0C5
:101A1000040313602E4B1B6803F00703042BF9D15A
:101A20002C4A136823F4C06343F40073136002F577
:101A3000D032136843F001031360274B1B6813F087
:101A4000020FFAD0244B1A6842F008021A601A6892
:101A500022F0F00242F060021A605A6822F47F42DB
:101A60005A60D9681D4A0A4042F4205242F00102ED
:101A7000DA60DA6842F08072DA601A6842F08072E6
:101A80001A60154B1B6813F0007FFAD0124A936856
:101A900043F003039360104B9B6803F00C030C2B83
:101AA000F9D10D4B9A6822F0F0029A609A6822F4FC
:101AB000E0629A609A6822F460529A60084801F0E5
:101AC00091F80F2000F028FC00B908BDFFF798FF3F
:101AD0000020024000700040001002408C80FFF99E
:101AE00000B4C40400B5A7B0384B1A6E42F001022E
:101AF0001A661A6E02F001020392039A9A6D42F07E
:101B000080529A659B6D03F080530293029B0320E1
:101B100000F036FC00220F214FF0FF3000F042FCB5
:101B20002B4B1B682B4AA2FB03239B09013BB3F100
:101B3000807F0AD24FF0E0225361274BF02183F8D7
:101B400023100023936107231361FFF75BFFFEF768
:101B5000C3FCFEF759FCFFF7DBF900F05DF8FFF777
:101B60007BFA00F0C9F900F0B3FAFFF74FFD1B480C
:101B700001F034FAFFF732F9F0B1194801F02EFA0A
:101B80001F20FFF783FE174B0093F0234FF4A07242
:101B900000210846FFF7E0FEFEF7A6FDFEF70CFE6B
:101BA00070B1FEF72FFFFFF737F804A8FEF768FBC8
:101BB00004A8FEF78FFBFBE70B4801F00FFADFE705
:101BC00000220A490A48FEF7BBFDEAE7001002407E
:101BD00004000020D34D621000ED00E0EC4D000841
:101BE000F84D0008384E0008084E0008144E000852
:101BF000204E0008064B1B78002BFBD0054A1368CB
:101C000023F040031360024B00221A70704700BF9C
:101C1000EA0D00200030014010B592B028220021CA
:101C200008A801F057F80023029303930493059347
:101C30000693079303F1804303F504331A6E42F4CD
:101C400080521A661A6E02F480520192019ADA6C7E
:101C500042F00102DA64DB6C03F001030093009BA5
:101C6000E0230293022303930322049206930523A5
:101C7000079302A94FF0904000F0AEFC524AD3699E
:101C800023F4FF4323F0700343F40253D3614F491D
:101C9000D36923F47F5323F02F035B045B0C102BD9
:101CA00000F08380484B596200229A62464A136AC8
:101CB0001B0C1B0443F001031362D2F8A82022F08E
:101CC000F002F02393FAA3F3002B73D0B3FA83F35B
:101CD000012000FA03F313433B4AC2F8A830136B08
:101CE00023F4FF4323F0700343F4025343F0100343
:101CF0001363136B23F47F5323F02F035B045B0CFC
:101D0000102B59D0304B00229A63D9632E4A536B63
:101D10001B0C1B0443F001035363D2F8A82022F4E8
:101D200070624FF4706393FAA3F3002B49D0B3FAB7
:101D300083F3012101FA03F31343234AC2F8A830C5
:101D4000D36943F00203D361136B43F002031363BF
:101D5000002308934FF4827209924FF4E0620A92D2
:101D60000B930C934FF400720D920E930F931093FC
:101D700007231193164C08A9204600F09FFE6368C4
:101D800023F010036360636843F0080363606368D3
:101D900043F480536360636843F0010363606368E6
:101DA00043F00203636012B010BD1346916200223B
:101DB0005A627BE720238BE713460022DA6399639C
:101DC000A4E72023B5E700BF000002400C3001402B
:101DD0000030014010B5184CE36923F00103E361C2
:101DE000154BDB6913F0010FFAD1134B1C6A240C5D
:101DF00024041C621A629962196B21F001011963B3
:101E00000D4B1B6B13F0010FFAD10B4B596B090CE7
:101E1000090459635A63D86308490A6842F04002CA
:101E20000A60DA6942F00102DA611A6B42F00102DB
:101E30001A63FFF7DFFE10BD0000024000300140D2
:101E4000064B1B6813F0200F07D0044A536843F079
:101E500020035360024B01221A70704700000240B9
:101E6000EA0D0020054B1B6813F4007F04D0034AE1
:101E7000536843F400735360704700BF0000024092
:101E8000FEE7FEE7FEE7FEE7FEE7704770477047B4
:101E900070B50C461646002506E0AFF300802146DB
:101EA00001F8010B01350C46B542F6DB304670BD3A
:101EB00070B50C461646002504E014F8010B00F03E
:101EC000A9F90135B542F8DB304670BD4FF0FF305F
:101ED00070474FF400534B6000207047012070475B
:101EE00000207047034AD2F8883043F47003C2F8E8
:101EF0008830704700ED00E010B590B000230993E2
:101F00000A930B930C930D930E930F9303930493E7
:101F1000059306930793089303F1804303F5043375
:101F2000D3F8882022F00302C3F888201A6E42F406
:101F300080421A661A6E02F480420292029ADA6CA9
:101F400042F00102DA64DB6C03F001030193019BB0
:101F50004FF4C063039302230493032305930723E1
:101F6000089303A94FF0904000F036FB534BD3F891
:101F7000A82022F470224FF4702393FAA3F3002BCD
:101F800000F09780B3FA83F3022101FA03F31A43B6
:101F90004A4BC3F8A8209A6D22F4804222F0100226
:101FA0009A659A6D22F440529A659A6D22F0200249
:101FB0009A659A6D22F040029A659A6D42F080020D
:101FC0009A659A6D22F440729A659A6D22F4406285
:101FD0009A65D3F8A82022F470424FF4704393FA24
:101FE000A3F3002B67D0B3FA83F3022101FA03F3C2
:101FF0001A43324BC3F8A8205A6C22F4804222F0D4
:10200000100242F010025A645A6C22F440525A6490
:102010005A6C22F020025A645A6C22F040025A6430
:102020005A6C42F080025A645A6C22F440725A642C
:102030005A6C22F440625A64214AD2682149002233
:1020400081F82523202048601F49D9640439196686
:10205000596C41F002015964596C41F0080159640E
:10206000996D41F002019965996D41F008019965FA
:102070004FF4E13309930A920B920C920C230D93C7
:102080000E920F92114C09A9204600F055FD63688D
:1020900023F490436360A36823F02A03A3602368BA
:1020A00043F001032360236823F02003236010B072
:1020B00010BD202368E7202397E700BF00000240FF
:1020C00000ED00E000E100E0283801400038014068
:1020D00070B590B0002409940A940B940C940D945C
:1020E0000E940F9403940494059406940794089412
:1020F000274BD3F8882022F00C02C3F888209A6D71
:1021000042F400329A659A6D02F400320292029A09
:10211000DA6C42F00102DA64DB6C03F00103019334
:10212000019B0423039302260496032505950723A8
:10213000089303A94FF0904000F04EFA4FF400438B
:1021400003930496059506940794089503A94FF008
:10215000904000F041FA4FF4E13309930A940B9454
:102160000C940C230D930E940F940A4C09A920464D
:1021700000F0E2FC636823F490436360A36823F0FB
:102180002A03A360236843F00103236010B070BDED
:102190000010024000440040044BDB6913F0800F44
:1021A000FAD080B2014B1885704700BF0044004050
:1021B000114A536C23F0010353640F4B5B6C13F013
:1021C000010FFAD10C4B996418650C4A52E8003F94
:1021D00043F0800342E800310029F6D1064A536CEF
:1021E00043F001035364064B1B78002BFBD0044BD8
:1021F00000221A70704700BF0000024008380140FA
:10220000ED0D0020024A136843F02003136070476D
:102210000038014010B50446C0B2FFF7BDFF2046AC
:1022200010BD000008B5114BDB6913F0200F04D07E
:102230000E4B1B6813F0200F0AD10C4BDB6913F017
:10224000080F04D0094A136A43F00803136208BD5B
:10225000064B1A6822F020021A60054A012111700B
:102260009A8C044B1A70FEF72BFAE6E7003801400F
:10227000EB0D002028060020064B1B6813F4005FBE
:1022800007D0044A536843F400535360024B0122C1
:102290001A70704700000240ED0D0020064B1B68CD
:1022A00013F4003F07D0044A536843F400335360EB
:1022B000024B01221A70704700000240EC0D002012
:1022C000F0B585B007460D4601214FF4007000F0CF
:1022D000B9FC0646002409E00D4901A800F096FE6D
:1022E00001A9304600F023FF0134E4B2AC420BD226
:1022F00007EBC4039A88DB88691EA142ECD9054923
:1023000001A800F083FEEBE7304605B0F0BD00BF4A
:1023100088A6020880A60208104B1B780BB9012082
:10232000704710B504464FF47A70B0FBF3F30C4AD3
:102330001068B0FBF3F000F06DF868B90F2C01D90C
:1023400001200AE0002221464FF0FF3000F02AF879
:10235000044B1C60002000E0012010BD080000209C
:10236000040000200C000020034B1B78034A116876
:102370000B441360704700BF08000020F00D0020E0
:10238000074AD36823F4E0631B041B0C000200F42B
:10239000E060034343F0BF6343F40033D36070470E
:1023A00000ED00E000B5194BDB68C3F30223C3F175
:1023B000070CBCF1040F28BF4FF0040C03F1040E0E
:1023C000BEF1060F18D9033B4FF0FF3E0EFA0CFC8E
:1023D00021EA0C0199400EFA03F322EA03031943A0
:1023E00000280BDB0901C9B200F1604000F5614033
:1023F00080F800135DF804FB0023E5E700F00F0010
:102400000901C9B2024B1954F4E700BF00ED00E026
:1024100014ED00E00138B0F1807F0BD24FF0E023E3
:102420005861054AF02182F82310002098610722A4
:102430001A6170470120704700ED00E00346027A00
:10244000002A00F0B08010B4006800283FD05A7A0B
:10245000012A1DD0022A26D062B101209A7A002AD0
:1024600035D0022A3FD0032A48D0012A25D040F097
:1024700002002CE002F1804202F58232516821EA2A
:102480000000506019681068014311600020E5E702
:10249000504A116821EA0000106019685068014331
:1024A00051600020DAE74B4A116808431060196850
:1024B0005068014351600020D0E71C68454AD1684C
:1024C00021EA0401D16019689468214391605A6837
:1024D000002A32D0597A012932D002293AD0B9B132
:1024E00040F0040020E01C683A4A916821EA0401A7
:1024F00091601968D4682143D160E8E71968354ACA
:102500009468214391601968D4682143D160DEE763
:1025100001F1804101F582314C6A24EA02024A62EB
:102520005A680C6A22430A629A7A32B1022A25D08A
:10253000032A2ED0012A16D001205DF8044B7047E3
:1025400024490C6A24EA02020A625A684C6A22434D
:102550004A62E9E71F490C6A22430A625A684C6AD8
:1025600022434A62E0E75C681A4AD16A21EA040120
:10257000D1625B68916A0B439362DEE75C68154A3F
:10258000916A21EA040191625B68D16A0B43D362CC
:10259000D3E759680F4A946A214391625B68D16A14
:1025A0000B43D362C9E700680A4A116821EA0001B7
:1025B00011601868516821EA000151605868116A79
:1025C00021EA000111625968536A23EA0103536248
:1025D0000020704700040140F0B40A6892FAA2F2A9
:1025E00012B1B2FA82F24EE020224CE08E68856889
:1025F00093FAA3F4E4B1B4FA84F464004FF0030C4A
:102600000CFA04F425EA040593FAA3F494B1B4FA9D
:1026100084F4640006FA04F42C4384600D68CE68E8
:10262000446824EA050406FB05F52C43446039E0C0
:102630002024E2E72024ECE720243BE0202446E0AD
:10264000202456E02024A40006FA04F42C4304625B
:102650004E68056893FAA3F4002C75D0B4FA84F49C
:1026600064004FF0030C0CFA04F425EA040493FA16
:10267000A3F3002B6AD0B3FA83F35B0006FA03F3EB
:102680002343036001320B6833FA02F460D04FF049
:10269000010C0CFA02FC1CEA0303F3D04C68013C69
:1026A000012CA3D90E69C56893FAA3F4002CC3D0FA
:1026B000B4FA84F464004FF0030C0CFA04F425EA35
:1026C000040593FAA3F4002CB8D0B4FA84F464009F
:1026D00006FA04F42C43C4604C68022CB8D1FF2BDA
:1026E00014D84E69056A93FAA3F4002CA8D0B4FA62
:1026F00084F4A4000F2707FA04F425EA040593FAEA
:10270000A3F4002C9ED0B4FA84F49CE74F69466A87
:102710001C0A94FAA4F59DB1B5FA85F5AD004FF009
:102720000F0C0CFA05F526EA050594FAA4F44CB151
:10273000B4FA84F4A40007FA04F42C43446287E753
:102740002025EBE72024F5E7202489E7202394E7E0
:102750000020F0BC704710B4036823F0010303604D
:102760008A68036823F4F853CC6842EA04221343CE
:1027700003604B680361036843F0010303608368EF
:1027800023F4004383600A69836823F4FF6323F022
:1027900007038C692243134383600B691BB1836871
:1027A00043F4004383600B68026822F44012134331
:1027B00003604B69426822F40042134343600020E7
:1027C0005DF8044B70470000034B9B68C3F3031391
:1027D000024AD35CD84070470010024038A6020875
:1027E000034B9B68C3F30223024AD35CD840704773
:1027F0000010024048A60208034B9B68C3F3C223A3
:10280000024AD35CD84070470010024048A6020834
:102810003A4BDB6803F00303022B57D0032B57D04E
:10282000012B12D0354B1B6813F0080337D1334A04
:10283000126812F0080F41D1304BD3F89430C3F333
:1028400003232F4A52F8230043E02C4B1B6813F05C
:1028500008030ED0294B1B6813F0080F1AD1274B21
:10286000D3F894301B0903F0F003254A52F82300F3
:102870002FE0224A126812F0080F08D11F4BD3F83C
:102880009430C3F303231E4A52F8230021E01B4A6D
:102890001268F8E7194B1B68C3F30313E5E7174BFE
:1028A0001B6813F0080F0CD1144BD3F894301B099C
:1028B00003F0F003124A52F823000AE00F4A1268AC
:1028C000BFE70E4B1B68C3F30313F3E70D4800E0AB
:1028D0000D480A4AD368C3F302130133B0FBF3F087
:1028E000D368C3F3062303FB00F0D368C3F341634B
:1028F00001335B00B0FBF3F0704700BF00100240F3
:1029000050A602080024F40000127A0008B5354BE6
:102910009B6803F00C030C2B37D8DFE803F0093673
:102920003636073636366036363633002E482BE0DC
:102930002C4B1B6813F008030ED02A4B1B6813F0B6
:10294000080F1AD1274BD3F894301B0903F0F0037A
:10295000264A52F8230017E0224A126812F0080FA4
:1029600008D1204BD3F89430C3F303231F4A52F805
:10297000230009E01B4A1268F8E71A4B1B68C3F3EF
:102980000313E5E7FFF744FF08BD164B1B6813F080
:1029900008030DD1134A126812F0080F17D1114B1A
:1029A000D3F89430C3F30323104A52F82300EBE723
:1029B0000C4B1B6813F0080F0CD10A4BD3F8943062
:1029C0001B0903F0F003094A52F82300DCE7054A2B
:1029D0001268E9E7034B1B68C3F30313F3E70448EA
:1029E000D2E700BF001002400024F40050A6020805
:1029F00000127A0008B5032803D00C2829D0002043
:102A000008BD2C4BD3F88830034043EA0040A0F5C2
:102A1000403003284AD8DFE800F01502050CFFF724
:102A200075FFEDE7234B186810F48060E8D022486A
:102A3000E6E7204BD3F8900010F00200E0D04FF40E
:102A40000040DDE7FFF762FFFFF7BEFEFFF7D4FEB1
:102A5000D6E7184BD3F88830034043EA0040A0F58E
:102A600040200C2824D8DFE800F01A232323072372
:102A700023230A2323231100FFF748FFC0E70D4B50
:102A8000186810F48060BBD00B48B9E7094BD3F845
:102A9000900010F00200B3D04FF40040B0E7FFF711
:102AA00035FFFFF791FEFFF79BFEA9E70020A7E7A0
:102AB0000020A5E7001002400024F400036813F092
:102AC000400F36D110B4026822F47F4222F0BF02D8
:102AD0000B684C682343CC6823430C6923434C693F
:102AE00023438C692343CC6923430C6A2343134358
:102AF0000360436823F4706323F004038A68B1F829
:102B000016C042EA0C02134343608B68B3F5006FB2
:102B100003D2436843F4805343600B6AB3F5005F0C
:102B200003D000205DF8044B70478B8C03610020BC
:102B3000F8E701207047000038B5036813F0010F73
:102B400046D104460D460368234A1A404B68C968BB
:102B50000B4329690B43A9690B4313430360AB681B
:102B6000426822F44052134343606B69826822F446
:102B7000407213438360194B984204D0184B98421B
:102B800009D0012025E00320FFF734FF10B32A68A5
:102B90002AB901201DE00C20FFF72CFFF6E7AB69F6
:102BA000B3F5004F07D000EB5203B3FBF2F39BB237
:102BB000E36000200DE0530803EB4003B3FBF2F3A6
:102BC0004FF6F0721A40C3F342031343E360F0E799
:102BD000012038BD0120FCE7F369FFEF0038014018
:102BE00000440040014B1860704700BF0400002003
:102BF000DFF834D0FFF776F90C480D490D4A002371
:102C000002E0D458C4500433C4188C42F9D30A4AA1
:102C10000A4C002301E013600432A242FBD300F00F
:102C20001FF8FEF75FFFFEE7000001200000002014
:102C30007800002058A8020878000020080E002024
:102C4000FEE70000024B0A460146186800F04AB849
:102C500010000020014B1868704700BF10000020D2
:102C600070B50D4D0D4C641BA4100026A64209D171
:102C70000B4D0C4C01F02CFF641BA4100026A64247
:102C800005D170BD55F8043B98470136EEE755F87D
:102C9000043B98470136F2E748A8020848A8020812
:102CA00048A802084CA80208024B0146186800F028
:102CB0009BB800BF100000200A44914200F1FF338E
:102CC00000D1704710B511F8014B03F8014F914244
:102CD000F9D110BD02440346934200D1704703F876
:102CE000011BF9E737B5A1FB02244CB9114601924B
:102CF00000F07AF8019A054630B9284603B030BD95
:102D00000C2202600025F8E72146FFF7E3FFF4E715
:102D100037B5002944D051F8043C0190002BA1F1B3
:102D20000404B8BFE41800F0DFFD1E4A01981368E0
:102D300033B96360146003B0BDE8304000F0DABD21
:102D4000A34208D9256861198B4201BF19685B68E5
:102D500049192160EDE71A465B680BB1A342FAD925
:102D600011685518A5420BD1246821445418A34278
:102D70001160E0D11C685B68536021441160DAE7A0
:102D800002D90C230360D6E7256861198B4204BF82
:102D900019685B68636004BF491921605460CAE721
:102DA00003B030BDF40D002070B50E4E0C463168F6
:102DB000054611B900F01AF930602146284600F0A6
:102DC00015F9431C0AD0C41C24F00304A04207D008
:102DD000211A284600F00AF9013001D14FF0FF34E2
:102DE000204670BDF80D00202DE9F041CD1C25F0E6
:102DF000030508350C2D38BF0C25002D074601DBD7
:102E0000A94205D90C233B6000263046BDE8F0817D
:102E10002E4E00F069FD33681C4634BB2946384607
:102E2000FFF7C2FF431C04464DD134682646002EEE
:102E300040D123683146384604EB030800F0D6F849
:102E400080453AD1216803356D1A25F00305083510
:102E50000C2D38BF0C2529463846FFF7A5FF013059
:102E60002BD023682B4423600EE02268521B1ED413
:102E70000B2A16D96119A342256018BF59606368EF
:102E800008BF316062514B60384604F10B0600F018
:102E900031FD26F00706231DF21AB6D09B1BA35066
:102EA000B3E76268A3420CBF32605A60ECE7234686
:102EB0006468B2E734467668B9E70C233B6038466D
:102EC00000F018FDA1E72560DEE700BFF40D00204B
:102ED0000FB40A4B13B51C6824B1A36913B920467B
:102EE00000F0EAFB05AB049AA1680193204601F0CB
:102EF0005FF802B0BDE8104004B070471000002039
:102F000070B50E46054618B183690BB900F0D4FBC5
:102F1000AB69AC6813B9284600F0CEFB2C4B9C4241
:102F200020D16C68636EDB0705D4A389980502D4B1
:102F3000A06D00F05FFCA38919071DD52369DBB1E3
:102F4000013EA36816F8011F013BA36039BB002BAB
:102F500038DA22460A21284600F0B2F9013011D0B1
:102F60000A2511E01B4B9C4201D1AC68DAE71A4BF1
:102F70009C4208BFEC68D5E72146284600F004FAD9
:102F80000028DDD04FF0FF35636EDA0705D4A38942
:102F90009B0502D4A06D00F02EFC284670BD002BCE
:102FA00004DAA2699A4206DC0A2904D023685A1C72
:102FB00022601970C5E72246284600F081F90130E9
:102FC000BFD1DFE723680A255A1C22601D70DBE7AA
:102FD000B8A70208D8A7020898A70208024B014622
:102FE0001868FFF78DBF00BF1000002038B5064DF0
:102FF0000023044608462B6001F05CFD431C02D10F
:103000002B6803B1236038BD000E00200EB400B55C
:103010009CB01DAB029006906FF0004109480791EB
:103020000491094953F8042B05910068019302A902
:1030300000F0C2FC029B00221A701CB05DF804EB89
:1030400003B07047100000200802FFFF0EB410B557
:103050009FB021AC4FF4017154F8042B0192ADF8EC
:103060001C1004900890FDF7B3F80C4B05900990E4
:103070000D930B48019A0068039400231193169353
:103080004FF6FF73ADF81E3004A9234600F0EEFDA5
:103090001FB0BDE8104003B0704700BFC730000844
:1030A0001000002010B50C46B1F90E1001F096FB8F
:1030B0000028ABBF636DA3891B1823F48053ACBFFA
:1030C0006365A38110BD002070472DE9F0411F46C4
:1030D0008B89DB0505460C46164605D5B1F90E1061
:1030E0000223002200F088FBA389B4F90E1023F418
:1030F0008053A38132463B462846BDE8F04100F0AC
:1031000031B910B50C46B1F90E1000F075FB431C37
:10311000A38915BF606523F4805343F48053A381D2
:1031200018BFA38110BDB1F90E1000F09BB910B506
:103130000246147813460132002CFAD1013B11F8F3
:10314000012B03F8012F002AF9D110BDC9B20346A3
:1031500010F8012B1AB18A42F9D11846704700299C
:1031600018BF0023F9E710B50139034632B111F851
:10317000014F03F8014B013A002CF7D11A4400210A
:10318000934200D110BD03F8011BF9E70A7870B52E
:103190006AB970BD9A4209D10C46054614F8013F40
:1031A000002BF6D015F8016F9E42F7D0013003785E
:1031B000002BEFD11846ECE7012B2DE9F04701D0A9
:1031C000242B06D9FFF746FD162303600020BDE837
:1031D000F087DFF8E4C00D462E4615F8014B14F8D1
:1031E0000C7017F00807F7D12D2C32D12C7801275D
:1031F000B51C002B5BD0102B09D1302C07D12C78BB
:1032000004F0DF04582C4DD16C781023023507F1FF
:10321000004808F1FF384FF0000CB8FBF3F96646A0
:1032200003FB198AA4F1300EBEF1090F16D87446BB
:10323000A34224DDBCF1000F1EDBB1451CD301D13C
:10324000A24519DB06FB03464FF0010C15F8014BB4
:10325000E8E72B2C04BF2C78B51CCAE7A4F1410E7B
:10326000BEF1190F01D8373CE2E7A4F1610EBEF1BF
:10327000190F04D8573CDBE74FF0FF3CE6E7BCF101
:10328000000F05DA22230360464642B930469EE726
:1032900007B17642002AF9D0BCF1000F00D0691EB8
:1032A0001160F3E73024002BB1D10823AFE7302CB5
:1032B000A5D00A23ABE700BF95A60208FFF77CBFA5
:1032C000F8B50E461446054618B183690BB900F0EF
:1032D000F3F9214B9C422BD16C68A369A360A389AD
:1032E0001A072FD523696BB323692068C01A636955
:1032F000F6B28342374604DC2146284600F048F9FE
:1033000030BBA368013BA36023685A1C22601E7077
:1033100063690130834204D0A389DB0706D50A2EF6
:1033200004D12146284600F033F988B93846F8BD63
:103330000A4B9C4201D1AC68CFE7094B9C4208BFC5
:10334000EC68CAE72146284600F01EF80028CBD0DA
:103350004FF0FF37EAE700BFB8A70208D8A7020876
:1033600098A7020838B5074D0446084611460022C2
:103370002A601A46FEF79CFD431C02D12B6803B15C
:10338000236038BD000E0020324B70B51D68064624
:103390000C4625B1AB6913B9284600F08DF92E4BC8
:1033A0009C420FD16C68A389B4F90C2019072CD466
:1033B000DD0611D40923336042F04003A3814FF0AE
:1033C000FF303EE0254B9C4201D1AC68EBE7244B3B
:1033D0009C4208BFEC68E6E7580712D5616B41B123
:1033E00004F14403994202D03046FFF791FC0023D8
:1033F0006363A38923F02403A3810023636023690B
:103400002360A38943F00803A38123694BB9A389EF
:1034100003F42073B3F5007F03D02146304600F05B
:1034200023FAA089B4F90C2010F001030AD000237C
:10343000A36063695B42A361236943B910F0800014
:10344000BAD170BD810758BF6369A360F4E700205B
:10345000F7E700BF10000020B8A70208D8A70208AD
:1034600098A7020838B5064D0023044608462B608D
:10347000FEF72CFD431C02D12B6803B1236038BD3D
:10348000000E00208A892DE9F041054610070C4600
:1034900058D44B68002B05DC0B6C002B02DC0020A1
:1034A000BDE8F081E66A002EF9D0002312F48052C4
:1034B0002F682B6032D0606DA3895A0705D56368E9
:1034C000C01A636B0BB1236CC01A00230246E66A74
:1034D000216A2846B047431CA38906D129681D29C3
:1034E0002CD82A4ACA40D60728D500226260D904BF
:1034F0002269226004D5421C01D12B6803B96065A2
:10350000616B2F600029CAD004F14403994202D0B4
:103510002846FFF7FDFB00206063C1E7216A012315
:103520002846B047411CC7D12B68002BC4D01D2BA7
:1035300001D0162B01D12F60B1E7A38943F04003DE
:10354000A381ADE70F69002FA9D093070E6808BFCC
:103550004B690F6018BF0023A6EB07088B60B8F11A
:10356000000F9CDD216AA66A43463A462846B047CA
:10357000002806DCA38943F04003A3814FF0FF300D
:103580008EE70744A8EB0008E9E700BF01004020F0
:1035900038B50B6905460C4613B90025284638BDD9
:1035A00018B183690BB900F087F8144B9C421BD10A
:1035B0006C68B4F90C30002BEFD0626ED00704D4E5
:1035C000990502D4A06D00F015F928462146FFF7B1
:1035D00059FF636EDA070546E0D4A3899B05DDD465
:1035E000A06D00F008F9D9E7054B9C4201D1AC6809
:1035F000DFE7044B9C4208BFEC68DAE7B8A7020893
:10360000D8A7020898A70208002310B50446C0E90D
:103610000033C0E90433836081814366C2818361E2
:10362000194608225C30FFF755FB054B6362054BDA
:10363000A362054BE362054B2462236310BD00BF08
:10364000A5300008CB3000080331000827310008FE
:10365000014900F0AFB800BF9135000870B568228D
:103660004D1E55430E4605F17401FFF7BDFB0446A0
:1036700040B10021C0E900160C30A06005F16802DD
:10368000FFF728FB204670BD014800F0B3B800BF2B
:10369000FD0D0020014800F0AEB800BFFD0D002078
:1036A000014800F0A7B800BFFE0D0020014800F05F
:1036B000A2B800BFFE0D002010B50446FFF7F0FFD2
:1036C000A3691BB1BDE81040FFF7F0BFC4E9123396
:1036D0002365134B134A1B68A262A34204BF012354
:1036E000A361204600F020F86060204600F01CF83E
:1036F000A060204600F018F80022E0600421606815
:10370000FFF782FFA06801220921FFF77DFFE06833
:1037100002221221FFF778FF0123A361D2E700BF45
:1037200090A6020851360008F8B50746FFF7ACFF2F
:103730001E4B1E68B36913B93046FFF7BDFF48360C
:10374000D6E90134013B03D533680BB33668F7E79C
:10375000B4F90C50D5B9164BE36004F15800656616
:1037600000F047F8FFF796FFC4E90155C4E9045596
:103770002560A5610822294604F15C00FFF7AAFA3A
:10378000C4E90D55C4E912552046F8BD6834D9E79F
:1037900004213846FFF762FF044630600028D5D187
:1037A000FFF778FF0C233B60EEE700BF90A602080E
:1037B0000100FFFF2DE9F8430646884600F1480462
:1037C0000027D4E90195B9F1010905D52468002C39
:1037D000F7D13846BDE8F883AB89012B07D9B5F995
:1037E0000E30013303D029463046C04707436835C1
:1037F000E9E770477047704738B5074D04460846FB
:10380000114600222A601A46FEF76AFB431C02D1C9
:103810002B6803B1236038BD000E002070B50E4642
:10382000B1F90E10002996B014461D4608DAB6F913
:103830000C3000222A601A0610D44FF480630EE088
:103840006A4601F0C3F80028F1DB019A02F47042E5
:10385000A2F500535A425A412A60EEE74023002065
:10386000236016B070BD00008B8973B59D070646B6
:103870000C4607D504F147032360236101236361EC
:1038800002B070BD01AB6A46FFF7C8FF009905465C
:103890003046FFF7A9FA48B9B4F90C309A05EFD4CD
:1038A00023F0030343F00203A381E3E70D4BB3626C
:1038B000A389206043F08003A381009B6361019B87
:1038C00020615BB1B4F90E10304601F091F828B1D7
:1038D000A38923F0030343F00103A381A0890543D7
:1038E000A581CDE7513600080148FFF783BF00BF2F
:1038F000FC0D00200148FFF77EBF00BFFC0D00203B
:103900002DE9F0478E689E4282460C4690461F463F
:1039100038D88A8912F4906F32D025680969A5EBEE
:103920000109656905EB450505EBD57501334B4488
:103930006D109D4238BF1D46530531D52946FFF70E
:1039400053FA064650B90C23CAF80030A38943F055
:103950004003A3814FF0FF30BDE8F08721694A465C
:10396000FFF7AAF9A38923F4906343F08003A381AE
:10397000266165614E44A5EB09052660A5603E46BB
:10398000BE4200D93E4620683246414601F040F82A
:10399000A3689B1BA3602368334423600020DBE7FC
:1039A0002A4601F04FF806460028E1D12169504629
:1039B000FFF7AEF9C7E700002DE9F04F98468B8975
:1039C0001B069DB007460D4614460ED50B6963B91C
:1039D0004021FFF709FA2860286120B90C233B60D9
:1039E0004FF0FF30D1E040236B6100230993202387
:1039F0008DF82930CDF80C803023DFF8A8818DF8C0
:103A00002A304FF0010923469A4613F8012B0AB1D8
:103A1000252AF9D1BAEB040B0BD05B462246294686
:103A20003846FFF76DFF013000F0AA80099A5A442A
:103A300009929AF80030002B00F0A28000234FF08A
:103A4000FF32CDE905230AF1010A049307938DF8AB
:103A500053301A935446052214F8011B5148FCF7C1
:103A6000BFFB049AD8B9D00644BF20238DF8533049
:103A7000110744BF2B238DF853309AF800302A2BBE
:103A800015D0079A544600204FF00A0C214611F831
:103A9000013B303B092B4ED9B0B1079214E0A0EBAB
:103AA000080309FA03F313430493A246D2E7039BE6
:103AB000191D1B680391002BBBBF5B4242F0020241
:103AC00007930793B8BF049223782E2B0CD1637809
:103AD0002A2B35D1039B1A1D1B680392002BB8BFFC
:103AE0004FF0FF3302340593DFF8C8A0217803229A
:103AF0005046FCF775FB40B14023A0EB0A0003FAE7
:103B000000F0049B03430134049314F8011B26487E
:103B10008DF828100622FCF763FB002838D0234BD1
:103B20001BBB039B073323F0070308330393099B55
:103B30003344099367E70CFB02320C460120A5E7EA
:103B400000230134059319464FF00A0C204610F863
:103B5000012B303A092A03D9002BC5D00591C3E7C0
:103B60000CFB012104460123F0E703AB00932A4636
:103B70000F4B04A93846AFF30080421C0646D6D14D
:103B8000AB895B063FF52CAF09981DB0BDE8F08FFF
:103B900003AB00932A46064B04A9384600F0A6FB67
:103BA000EBE700BFF8A7020802A802080000000027
:103BB00001390008FEA7020838B54B1C144603D192
:103BC0004FF0FF35284638BD938923F020039381B9
:103BD000636B5268CDB28BB1A36B934208DD23684F
:103BE0005A1E226003F8015C636801336360E9E7F1
:103BF000214600F0B1FE0028F1D0E1E721692368F9
:103C000051B1994208D213F8011CA94204D1013BD9
:103C1000013223606260D5E7C4E90F3204F1440346
:103C200063630323A363234603F8465F23600123F2
:103C3000DCE710B50C46496B69B104F144039942C5
:103C400001D0FFF765F8236C63600020606313B157
:103C5000E36B236010BD2369236000236360A389A5
:103C600043F02003A3814FF0FF30F3E72DE9F04745
:103C70000C46ADF5227D0021CDE94411A649A09165
:103C80000DF10408A549A64FDFF89892CDF81881E8
:103C90000646A19100931378002B00F05A81D95D5C
:103CA00011F0080102F1010519D06368002B0FDD46
:103CB00023681A78BA5C120701D42A46EBE7459AC2
:103CC0000132459262680133013A62602360ECE799
:103CD000A19B2146304698470028E9D0EDE7252BE7
:103CE00012D09A466368002B40F3918022681378C3
:103CF000534540F02E816368013B6360459B013270
:103D0000013322604593D8E74191439153782A2BA0
:103D100002BF1023951C41930A22AA461AF8011BE0
:103D2000A1F13003092B1DD97E480322FCF758FA74
:103D300040B10123A0EB090003FA00F0419B1843B6
:103D40004190554615F8013B782B06D8572B10D8D3
:103D5000252BC6D056D8002B64D0032347930A23C3
:103D6000429371E0439B02FB031130394391554666
:103D7000D3E7A3F15802202AEFD801A151F822F08D
:103D8000333E00085B3D00085B3D0008913E0008A3
:103D90005B3D00085B3D00085B3D00085B3D0008A3
:103DA0005B3D00085B3D00085B3D0008A73E000846
:103DB0007D3E00080B3E00080B3E00080B3E00084D
:103DC0005B3D0008813E00085B3D00085B3D00084C
:103DD0005B3D00085B3D0008B73E0008893E0008D7
:103DE0002B3E00085B3D00085B3D0008B33E000829
:103DF0005B3D00087D3E00085B3D00085B3D000820
:103E0000333E0008453B022BA7D805231BE0A19BAE
:103E100021463046984700283FF468AF4498002870
:103E200040F08D804FF0FF308FE0419A42F0200249
:103E30004192419A42F40072419210226F2B4292B9
:103E400034BF0323042347936368002B42DD419B67
:103E5000590604D423681A78BA5C120741D4479BE8
:103E6000022B50DC6B46224641A9304600F064FB31
:103E700001286ED002287FF420AFCFE70A22DDE7C9
:103E8000002342930323DEE7082342930423DAE767
:103E90002946404600F0B4FC419B43F04003419367
:103EA00005460123CFE7419B43F0400341930023A4
:103EB000C9E70223C7E74198C3063FF5FEAE009B62
:103EC000459A191D00911B6810F0010F14BF1A804C
:103ED0001A60F2E6A19B2146304698470028B6D0EA
:103EE0009CE7459A013245926268013A002A626075
:103EF00002DD01332360ADE7A19B214630469847A0
:103F00000028A7D08AE7042B0EDC6B46224641A985
:103F1000304600F06BFBABE7B93B0008333C0008D0
:103F200095A60208FEA702080B4B002B3FF4C5AE76
:103F30006B46224641A93046AFF3008098E7A3893B
:103F400013F0400F18BF4FF0FF300DF5227DBDE894
:103F5000F0874498F9E700BF000000009368013B38
:103F6000002B10B4936008DA9469A34201DB0A299C
:103F700003D15DF8044BFFF7A3B91368581C106018
:103F8000197008465DF8044B7047F8B506460F46B1
:103F90001446D518AC4201D1002007E014F8011BEB
:103FA0003A463046FFF7DAFF431CF3D1F8BD000074
:103FB0002DE9F04F0D469DB014469846064618B1BF
:103FC00083690BB9FFF778FB894B9D421BD175685C
:103FD0006B6ED90705D4AB899A0502D4A86DFFF79B
:103FE00009FCAB891B0701D52B69EBB92946304683
:103FF000FFF7CAF9C0B16B6EDC070ED54FF0FF308A
:104000001DB0BDE8F08F7B4B9D4201D1B568DFE765
:10401000794B9D4208BFF568DAE7AB899805EDD486
:10402000A86DFFF7E8FBE9E70023099320238DF84B
:104030002930CDF80C803023DFF8C0818DF82A308C
:104040004FF0010923469A4613F8012B0AB1252A9D
:10405000F9D1BAEB040B0BD05B4622462946304619
:10406000FFF793FF013000F0AA80099A5A440992A1
:104070009AF80030002B00F0A28000234FF0FF32AE
:10408000CDE905230AF1010A049307938DF8533013
:104090001A935446052214F8011B5848FCF7A0F85F
:1040A000049AD8B9D10644BF20238DF853301307A2
:1040B00044BF2B238DF853309AF800302A2B15D0AB
:1040C000079A544600204FF00A0C214611F8013B94
:1040D000303B092B4ED9B0B1079214E0A0EB080396
:1040E00009FA03F313430493A246D2E7039B191D75
:1040F0001B680391002BBBBF5B4242F00202079397
:104100000793B8BF049223782E2B0CD163782A2B07
:1041100035D1039B1A1D1B680392002BB8BF4FF0CB
:10412000FF3302340593DFF8E4A0217803225046E0
:10413000FCF756F840B14023A0EB0A0003FA00F068
:10414000049B03430134049314F8011B2C488DF89D
:1041500028100622FCF744F800283FD0294B1BBB4F
:10416000039B073323F0070308330393099B3B4466
:10417000099367E70CFB02320C460120A5E70023F8
:104180000134059319464FF00A0C204610F8012B14
:10419000303A092A03D9002BC5D00591C3E70CFB9F
:1041A000012104460123F0E703AB00932A46164B96
:1041B00004A93046AFF300800746781CD6D16B6E59
:1041C000D90705D4AB899A0502D4A86DFFF713FB74
:1041D000AB895B063FF512AF099811E703AB00937B
:1041E0002A46094B04A9304600F080F8E4E700BFF6
:1041F000B8A70208D8A7020898A70208F8A70208DB
:1042000002A80208000000008B3F0008FEA7020879
:104210002DE9F047164699468A680B69DDF820803B
:104220009342B8BF1346336091F8432007460C46CB
:104230000AB1013333602368990642BF3368023301
:104240003360256815F0060506D104F1190AE36804
:1042500032689B1AAB4226DC94F84320131E226876
:1042600018BF012392062BD404F143024946384675
:10427000C04701301ED02368E568326803F00603AA
:10428000042B08BFAD1AA36822690CBF25EAE575A7
:1042900000259342C4BF9B1AED1800261A34B5427C
:1042A0001AD1002008E00123524649463846C0474B
:1042B000013003D14FF0FF30BDE8F0870135C6E78C
:1042C000E1185A1C302081F84300224494F845102C
:1042D00082F843100233C7E7012322464946384695
:1042E000C0470130E6D00136D9E700002DE9FF478D
:1042F0000F7E0C9D782F914680460C469A4601F120
:10430000430207D8622F0AD8002F00F0D880582F18
:1043100000F0A38004F1420584F842703AE0A7F16E
:104320006303152BF6D801A151F823F0854300084B
:104330009943000815430008154300081543000879
:104340001543000899430008154300081543000869
:104350001543000815430008A5440008C943000898
:10436000874400081543000815430008C7440008A7
:1043700015430008C9430008154300081543000809
:104380008F4400082B681A1D1B682A6004F142053F
:1043900084F842300123A3E020682968060601F171
:1043A00004030AD50E682B60002E03DA2D23764213
:1043B00084F843305E480A2319E00E682B6010F041
:1043C000400F18BF36B2EFE72B682068191D29602F
:1043D000010601D51E6802E04606FBD51E8854483A
:1043E0006F2F0CBF08230A23002184F8431065684F
:1043F000A560002DA2BF216821F0040121600EB943
:10440000002D4DD01546B6FBF3F103FB1167C75DD8
:1044100005F8017D3746BB420E46F4D9082B0BD177
:104420002368DE0708D5236961689942DEBF30231F
:1044300005F8013C05F1FF35521B2261CDF800A0C3
:104440004B4603AA21464046FFF7E2FE01304CD11D
:104450004FF0FF3004B0BDE8F087354881F8457073
:104460002968236851F8046B29601D0614D5DF07FD
:1044700044BF43F0200323601EB9236823F02003C8
:1044800023601023B0E7236843F0200323607823E0
:10449000284884F84530E3E7590648BFB6B2E6E756
:1044A0001546BBE72B6826686169181D286035062C
:1044B0001B6801D5196002E07006FBD51980002346
:1044C00023611546BAE72B681A1D2A601D686268C9
:1044D00000212846FBF784FE08B1401B606063683A
:1044E0002361002384F84330A8E723692A4649461C
:1044F0004046D0470130ABD023689B0713D4E06817
:10450000039B9842B8BF1846A4E7012332464946A8
:104510004046D04701309BD00135E36803995B1AD0
:10452000AB42F2DCEBE7002504F11906F5E700BF2A
:1045300009A802081AA802082DE9F84315468A6856
:1045400080460C4632B98A69002A0CBF01224FF01E
:10455000FF328A602268DFF89090D1065FBF1A6848
:10456000111D196016680027A06988B1012807D1BC
:104570002A6811786269525C52B9002F31D022E06A
:10458000022820D12B681B7813F809301B071AD496
:104590002368DA065EBF2B681B7806F8013B2A68A1
:1045A0006B6801322A60A268013B013A6B600137F7
:1045B000A26042B1002BD7DCD4F8803129464046B6
:1045C00098470028D0D0236813F0100305D1E26883
:1045D0000132E260A26902B1337023693B44236176
:1045E0000020BDE8F88300BF95A602082DE9F04F32
:1045F0009846764B0C468246164693E8070087B0ED
:1046000003AB83E80700724BA169724A032918BF04
:104610001A46A36801925A1EB2F5AE7F88BF6FF4A6
:10462000AE75274682BF03EB050940F25D13A36018
:1046300057F81C3B43F4506398BF4FF000092360C8
:104640003D464FF0000B316803AB097853F82B005F
:104650000222FBF7C5FD28B3BBF1010F59D16268F7
:104660002AB92268082342F400726360226022683B
:1046700022F4A0622260A268511EA16092B1326849
:10468000511C3160127805F8012B7268013A002A3A
:10469000726007DCD4F880213146504690470028EC
:1046A00040F085800BF1010BBBF1030FCBD16368A8
:1046B0000BB90A236360636847496069C91A00F04F
:1046C0009FF84FF0000BA3682268002B3DD03168A3
:1046D000606991F800C010F80C00002835D0BCF1DA
:1046E000300F24D1100522D50BF1010BB9F1000FC9
:1046F00003D0013309F1FF39A3607368013B002B3C
:1047000073601BDD336801333360A368013BA36032
:10471000D9E7BBF1020FAED1226802F4C061B1F556
:10472000007FBFD11023636042F48072A2E722F4BD
:10473000106222600B7805F8013BDEE7D4F8803187
:104740003146504698470028DFD02368DB050DD559
:10475000BD4209D915F8011CD4F87C3132465046C7
:10476000984705F1FF394D46BD422DD0226812F021
:10477000100213D12A706368019E39465046B04733
:104780002168D8F8003011F0200F13D01A1DC8F896
:1047900000201B681860E3680133E360ED1BAB4445
:1047A00025695D442561002007B0BDE8F08F4FF01A
:1047B000000BCAE71A1DC8F800201B6811F0010F92
:1047C00014BF18801860E6E70120EDE7084B0008E9
:1047D00055490008BD32000844A8020838B5074D05
:1047E00004460846114600222A601A46FDF750FB8F
:1047F000431C02D12B6803B1236038BD000E00209A
:1048000070B50B7804465E2B0BBF4B78481C881C98
:10481000002208BF0122611E04F1FF0501F8012FEB
:10482000A942FBD10BB9013870BD82F00102E254FC
:104830000546284610F8011B2D2906D05D29F3D026
:1048400009B92846F0E70B46F1E76E785D2EFAD0FD
:10485000B342F8DC0235194601318E426254FBDC6A
:10486000F11A0139581CB342A8BF00214318E0E7F0
:104870002DE9F043364F86460D46284615F8014B84
:10488000E65D16F00806F8D12D2C2FD12C780126E4
:10489000851C002B57D0102B09D1302C07D128783C
:1048A00000F0DF00582849D16C78102302354FF012
:1048B000FF380027B8FBF3F803FB08F96FEA090992
:1048C0003846A4F1300CBCF1090F14D86446A34259
:1048D00022DD002F1DDB80451BD301D1A14518DB54
:1048E00000FB0340012715F8014BEAE72B2C04BF1E
:1048F0002C78851CCDE7A4F1410CBCF1190F01D82F
:10490000373CE4E7A4F1610CBCF1190F04D8573C23
:10491000DDE74FF0FF37E6E7002F07DA2223CEF876
:1049200000304FF0FF3032B9BDE8F08306B14042AD
:10493000002AF9D007B1691E1160F5E73024002B79
:10494000B5D10823B3E7302CA9D00A23AFE700BFC5
:1049500095A60208FFF78CBF2DE9F0410C46496B84
:1049600004F1440399421DD14FF48061FEF73CFAF3
:1049700018B94FF0FF30BDE8F0814FF48063A363B6
:1049800094F84630606380F8FF3394F8453080F83F
:10499000FE3394F8443080F8FD3300F2FD3020609F
:1049A0000020E8E7A66B77003A4600F04BF8054692
:1049B0000028DED000EB0608014632464046FEF7EE
:1049C0007BF9C4E90D57C4F80080E9E738B5074D15
:1049D00000230446084611462B60FDF77AFA431C73
:1049E00002D12B6803B1236038BD00BF000E002048
:1049F00038B5064D0023044608462B60FDF76EFAD5
:104A0000431C02D12B6803B1236038BD000E002087
:104A1000884210B501EB020402D98442234607D82C
:104A2000431EA14208D011F8012B03F8012FF8E72B
:104A3000024401468A4200D110BD13F8014D02F82C
:104A4000014DF7E72DE9F041804614460E4621B9A5
:104A5000BDE8F0411146FEF7C7B92AB9FEF758F98B
:104A600025462846BDE8F08100F01BF88442074641
:104A700002D8B4EB500F12D821464046FEF7B4F9E5
:104A800005460028EDD0BC422246314628BF3A46B2
:104A9000FEF712F931464046FEF73AF9E1E73546AE
:104AA000DFE751F8043C181F002BBCBF0B58C0189F
:104AB00070470000044A05491368002B08BF0B46E5
:104AC0001844106018467047040E0020080E00209D
:104AD000F8B500BFF8BC08BC9E467047F8B500BFEB
:084AE000F8BC08BC9E467047BB
:104AE800392C00340200000000C130008500780035
:104AF800000E1403110731C148080F0C31360F009E
:104B08002BA802082EA8020831A80208746F706941
:104B1800632F6573703332617454780048656C6C28
:104B28006F2066726F6D2053544D33324C343332DC
:104B3800000000000D0A41540D0A00004F4B000010
:104B48004552524F5200000041542B43574A41509E
:104B58003D222573222C222573220D0A0000000015
:104B680041542B43574A41503D222573222C22257C
:104B780073222C222573220D0A0000000D0A4F4BC8
:104B88000D0A00000D0A4641494C0D0A00000000BC
:104B98000D0A4552524F520D0A00000041542B4352
:104BA800574A41503F0D0A003A2200004E6F2041FB
:104BB8005000000041542B434950534E5450434633
:104BC800473D25642C25642C222573222C2225732D
:104BD800222C222573220D0A0000000041542B4389
:104BE8004950534E54504346473D25642C25642C68
:104BF800222573222C222573220D0A0041542B43AF
:104C08004950534E54504346473D25642C25642C47
:104C1800222573220D0A00002B54494D455F55503B
:104C2800444154454400000041542B434950534EDD
:104C3800545054494D453F0D0A0000002B4349503C
:104C4800534E545054494D453A0000002B434950A7
:104C5800534E545054494D453A2573202573202509
:104C6800752025753A25753A257520256875000043
:104C7800706F6F6C2E6E74702E6F7267000000007C
:104C880041542B4D515454555345524346473D25A5
:104C9800752C25642C222573222C222573222C2284
:104CA8002573222C302C302C222573220D0A00006B
:104CB80041542B4D515454434F4E4E3D25752C2293
:104CC8002573222C25752C25640D0A002B4D515473
:104CD80054434F4E4E4543544544000041542B4DD8
:104CE800515454434F4E4E3F0D0A00002B4D515422
:104CF80054434F4E4E3A00002B4D515454434F4E9F
:104D08004E3A302C25642C25642C22255B5E225DCE
:104D1800222C222575222C22222C2564000000003A
:104D280025702570257000004A70776F6C666500E5
:104D380031323334353637383930000061316B372A
:104D480061737768766E7463672D6174732E696F0B
:104D5800742E75732D656173742D312E616D617AB2
:104D68006F6E6177732E636F6D00000041542B4D99
:104D78005154545055425241573D25752C222573A4
:104D8800222C25752C302C300D0A00002B4D515447
:104D9800545055423A4F4B002B4D515454505542A4
:104DA8003A4641494C00000041542B4D515454554A
:104DB8004E5355423D25752C222573220D0A0000BD
:104DC8000A4D6F64652069733A2025580A0000006F
:104DD800088227000F312B0C0E084EF137071003FD
:104DE8000E09000054657374207072696E740000B7
:104DF800496E69742053756363657373000000001E
:104E0800496E6974204661696C656400616161611D
:104E180061616161000000004A6572656D79205723
:104E28006F6C66652773206950686F6E65000000B7
:104E3800FFFBFFFBFFFBFFFBFFFCFFFBFFFBFFFB99
:104E4800FFDAFFB9FF79FF9ACE789D149CF49CD4C1
:104E580094B394B394938C938C928C928C938C93FC
:104E68008C728C728C728C728C7284728472847262
:104E7800847284527C527C317C317C317C327C520D
:104E88007C527C527C317C317C317C1174117411E0
:104E980074117411741174117411741174117411E2
:104EA80073F073F06BD06BD073F173F173F173F12E
:104EB8006BF16BF173F06BF073D073D06BD16BD176
:104EC8006BB16BB163D063B063D063B063B063B0F0
:104ED80063B063B063906390639063905B705B6F43
:104EE8005B4F5B6F5B4E534E532E532E530E52EE59
:104EF800530D4AED4AED4ACD4ACC42AC428C3A6B4E
:104F08003A6B3A4A320A29C9196719673A6B530E3C
:104F18005B4F532E530E4ACD42AC428C3A6B3A6BE0
:104F28003A6B3A4B3A4B3A4B3A4B3A4B3A4B3A4B31
:104F38003A4B322A322A324B324B324B322A322AFD
:104F4800322A322A322A322A322A322A322A322A79
:104F5800322A320A320A320A320A320A320A320A49
:104F6800320A320A320A320A320A320A320A29E983
:104F78002A0929E929E929E929E929E929E929E978
:104F880029C829C829E929E929E929E929C829C80D
:104F980029C829C829C829C829C829C829C829C980
:104FA80029C829C829C829C829C829C829C829C970
:104FB80039EA426B52EB5B6C5B4C52EB4249316510
:104FC8007BACC5D3D633D613C5D2BD71B571B57117
:104FD800B510ACEFACEFA4CFA4CF83ED630A6B4C54
:104FE800630B5AEB5AEB632B630A6B2B6B2C6B2C02
:104FF800738D6B6D7BAE6B4B734C7BAD944FA4B0D4
:10500800A4B09C8F9C8F9CAF9C8F9C8F9C8F9C8FF7
:105018009C8F9C8F9C8F9CAF9C8F948E946E946E6B
:10502800946E946E946E9C8E9CAF9CAF9CAF9CAF1C
:105038009C8E948E9C8E9CAFA4AFACCFACCFACCFE3
:10504800A4CFA4AF9C8E9C8E9CAE9CAFA4CFA4EFA3
:10505800ACEFACCFA4CFA4CFA4AEA4CFACEFACEF51
:10506800A4CFACCFACCFA4CFA48E9C6E9C6EA4AFC3
:10507800A4AFA4CFACEFACEFB510B530AD0FB51001
:10508800ACEFACEFB510AD0FACEFB510AD0FB53060
:10509800B510B510B530ACEFB530B510AD10ACEFFC
:1050A800ACEFACF0A4CFACCFACD0ACD0ACD09C8E35
:1050B800FFFBFFFBFFFBFFFCFFFCFFFBFFFBFFFB16
:1050C800FFB9FF99FF9AEF19A5339D149CD49CD47E
:1050D80094B394B394938C938C928C928C928C927C
:1050E8008C728C72847284728C72847284738472EF
:1050F800847284527C527C317C317C317C317C31AD
:105108007C527C327C327C317C317C11741174117C
:10511800741174117411741174117411741174115F
:1051280073F073F073F173F173F173F173F173F159
:105138006BF16BF173F073F073F073F16BD16BD1AA
:105148006BD16BD16BD06BD063B063B06BD16BD0CC
:1051580063D063B063B063906390639063705B6F78
:105168005B6F5B6F5B4F534E5B4E5B4E5B2E530E1C
:10517800530E4AED4AED4AED4ACC4ACC42AC428B3A
:105188003A6B322A320A29C9196719673A6B532EC2
:105198005B4F532E530E4ACD42AC428C3A6B3A6B5E
:1051A8003A6B3A6B3A6B3A6B3A6B3A4B3A4B3A4B2F
:1051B8003A4B3A4B322A324B324B324B322A322A52
:1051C800322A322A322A322A322A322A322A322AF7
:1051D800322A320A320A320A320A320A320A320AC7
:1051E800320A2A0A320A29E9320A320A29E929E95D
:1051F8002A0929E929E929E929E929E929E929E9F6
:1052080029C829C829E929E929E929E929C829C88A
:1052180029C829C829C829C829C829C829C829C8FE
:1052280029C829C829C829C829C829C829C829C9ED
:1052380029A93A0A426A52EB52EB4AAA42493185F5
:1052480083CDCDF4D633D613CDD2C591BD91BD71E2
:10525800B530B530AD10A4CF9CAF83CC62EA630BF8
:10526800634C6B4C6B4C632B6B4C630B6B2C736DEF
:105278006B4C736D7BAD738D736C83CD946F9C8F0A
:105288009C8F9C8F9C8F9C8E9C6E946E948E9C8E13
:10529800948E948E9C8F9C8E9C8F9C8E9C8F948ECB
:1052A800946E946E9C8E9CAF9CAF9CAF9CAF9CAF51
:1052B8009CAF9CAE9C8EA4AFA4CFACCFACEFACF0AF
:1052C800ACD0A4CF9CAF9CAE9CAE9CAEA4EFA4EF98
:1052D800ACEFACEFACEFA4EFA4CFA4CFAD10ACEF24
:1052E800ACEFACEFACEFA4CFA48E946E9C4D9C8E2B
:1052F8009C8EA4AEA4AEACEFB510B530B530B530C9
:10530800AD10AD0FB510AD0FACEFB510B510B53091
:10531800B530B530B530B510B530B510B510AD10E5
:10532800AD10AD10ACF0ACF0ACF0ACEFACF0A4AF9D
:10533800FFFBFFFBFFFBFFFBFFFCFFFBFFFBFFFA95
:10534800FF99FF99FF7ABDB49CF394D39CF494D44D
:1053580094B394B394938C938C928C928C928C7219
:105368008C728C7284728472847284728472847275
:105378008472845284527C327C317C317C317C3121
:105388007C327C327C327C317C317C11741174111A
:1053980074117411741174117411741174117411DD
:1053A80073F173F173F073F073F173F173F173F1D7
:1053B8006BF16BF173F173F173F173F16BF16BF1E5
:1053C8006BF16BF16BF06BF06BF06BF16BF163D120
:1053D8006BD06BD063B063B063906390639063905D
:1053E80063905B6F5B6F5B4F5B4E5B4E532E532E30
:1053F800530D530D4AED4AED4ACC4ACC42AC428B90
:105408003A6B322A320929C9196719673A6B532E40
:105418005B4F532E530E4ACD42AC428C428B3A6BB3
:10542800428B3A6B3A6B3A6B3A6B3A4B3A4B3A4B84
:105438003A6B3A4B3A4B3A4B3A4B324A324A322A57
:10544800322A322A322A322A322A322A322A322A74
:10545800322A320A320A320A320A320A320A320A44
:10546800320A320929E929E929E929E929E929E951
:1054780029E929E929E929E929E929E929C929C8D5
:1054880029C829C929C929C929C929C829C829C888
:1054980029C829C829C829C829C829C829C829C87C
:1054A80029C829C829C829C829C829C829C829A88C
:1054B800298931C932083A69428A428A42293165C2
:1054C80083EDCE14D634D612CDD2C5B2BD71BD513E
:1054D800B551AD10A4EFA4CFA4F0840D62EA630B1C
:1054E800630C634C6B8D6B6C6B4C6B4C73AD7BCEF0
:1054F8006B8D6B8D738D7BEE7BCD83ED946F9C8F65
:10550800948E9C8E9C8E9C8E948E948E946E948E8B
:105518009C6E9C8E9C8E9C8E9C6E9C8E9C8E9C6E93
:10552800944E9C6E9C8E9CAE9CAF9CAE9CAE9CAEEA
:105538009CAE9CAE9CAEA4AEA4CFACCFACCFACCF4F
:10554800ACEFA4CFA4AE9C8E9CAE9CAEA4EFACEF07
:10555800A4EFA4EFA4EFA4EFA4CFA4CEAD0FAD0F9A
:10556800ACEFA4EFACEFA4EFA4CF9C8E9C8E9CAEC6
:10557800A4AFA4CFA4AFA4EFAD10ACF0AD10ACEFC6
:10558800AD10ACEFACEFACEFAD10AD10AD10AD3071
:10559800B530B530B550B530B550AD30AD30B5508B
:1055A800AD30AD10AD30AD10ACF0ACEFA4EFA4EF62
:1055B800FFFBFFFBFFFBFFFBFFFBFFFBFFFAFFBA55
:1055C800FF99FFBACE56A4F2A5149CD39CF494B3C9
:1055D80094B394B394938C938C928C928C928C7297
:1055E8008C728C7284728472847284728472845213
:1055F8008472845284527C527C317C317C317C317F
:105608007C317C327C327C327C317C117C1174118F
:10561800741174117411741174117411741174115A
:105628007411741173F173F173F173F173F173F110
:1056380073F173F173F173F173F173F173F16BF14A
:105648006BD16BF173F073F06BF16BF16BF16BF184
:105658006BD06BD06BD06BB063B06390639063908A
:1056680063905B6F5B6F5B6F5B4F5B4E534E534E4C
:10567800532E530D530D4AED4ACC4ACC42AC428BC3
:105688003A6B322A320929C819671967428B532E97
:105698005B4F532E530E4ACD42AC42AC428C428CE7
:1056A800428B3A6B3A6B3A6B3A6B3A6B3A6B3A6BA2
:1056B8003A6B3A4B3A4B3A4B3A4B324A324A324AB5
:1056C800322A322A322A322A322A322A322A322AF2
:1056D800322A320A320A320A320A320A320A320AC2
:1056E800320A320A32093209320929E929E929E953
:1056F80029E929E929E929E929E929C929C829C874
:1057080029C829C829C829C829C829C829C829C809
:1057180029C829C829A829C829C829C829C829C819
:1057280029A829A829C829C829C829C829C829A849
:1057380029A929C929C832083A293A4A3A093166B1
:105748008C2ED634DE54D612CDD2CDD2C592BD51D0
:10575800B551B510AD10A4F0A4F07BED5ACA630B97
:10576800630C6B8D6B4C634C6B6C73AD738D73AD4D
:1057780073AD73AD73AD7BED7BED7BEC946E9C8F5D
:105788009C8F9CAF9C8E948E9C8E9CAE948E946EB7
:105798009C8E9C8E9C8E9C8E9C6E9C8E9C6E946D1A
:1057A800944D946E9C8E9CAE9CAE9CAE9C8E9C8EB2
:1057B8009C8E9C8E9CAEA4AEA4CFACCFACCFA4CF15
:1057C800A4CFA4CF9CAE9CAE9CAEA4AFA4EFAD106A
:1057D800A4EFA4EFA4EFAD0FA4EFA4CEAD0FAD0FCF
:1057E800AD0FAD0FAD0FAD0FA4EFA4CFA4EFAD106B
:1057F800A4EFAD10A4EFAD0FAD10A4EFAD10AD1038
:10580800AD10AD10ACEFAD0FAD10AD30AD30B53063
:10581800B550B550B550B530B530B530B530B550D8
:10582800B530AD30B530B530AD10AD10A4EFACEF3C
:10583800FFFBFFFBFFFBFFFBFFFBFFFBFFDAFF9913
:10584800FFB9EF18AD33A5149CD39CD394D48C9393
:1058580094B3949394938C938C928C928C928C7234
:105868008C728C72847284728472847284528452B0
:105878008472845284527C527C327C317C317C31FB
:105888007C317C327C327C327C317C117C1174110D
:1058980074117411741174117411741174117411D8
:1058A800741174117411741173F173F173F173F14C
:1058B80073F173F173F173F173F273F173F16C10A7
:1058C80073F1741173F173D173F273F16BF16BF0BF
:1058D8006BD06BD06BD06BB06BB063906390639000
:1058E800639063905B6F5B6F5B6F5B4E534E534E81
:1058F800532D530D530D4AED4ACD4ACC42AC428B41
:105908003A6B322A320929C819671967428C532E13
:105918005B6F5B4F530E4ACD42AC42AC428C428C1B
:10592800428B3A6B3A6B3A6B3A6B3A6B3A6B3A6B1F
:105938003A6B3A4B3A4B3A4B3A4B3A4A3A4A3A4A1A
:10594800322A322A322A322A322A322A322A322A6F
:10595800322A320A320A320A320A320A320A320A3F
:10596800320A31E931E931E931E931E931E931E93D
:1059780029E929E929E929E929E929C929C829C8F1
:1059880029C829C829C829C829C829C829C829C887
:1059980029C829C829A829C829C829C829C829C897
:1059A80029A829C829C829C829C829C829C829A8A7
:1059B80029A829A821A729C729E9320931C8318688
:1059C800944FD635DE54D612CDF2CDD2C592BD5005
:1059D800B510AD10AD10A4EFA4F083ED62EA630B2F
:1059E800630C632C6B6D73AD6B6C7BEE840F7BEE7D
:1059F8006B8D7C0E8C70840E842E83ED946F9CD0FE
:105A08009CCFA4CF9CAF9CAE9CAF9CAF948E946E61
:105A1800946E9C8E9CAF9CAF9C8E9C8E9C8E946E3C
:105A2800946E948E9C8E9CAF9CAF9CAF9CAF9C8ECA
:105A3800948E9CAE9CAEA4AFA4CFA4EFACEFA4CF41
:105A4800A4CFA4CF9CAF9CAF9CAF9CCFA4EFAD0FCD
:105A5800AD10AD10AD10AD0FACEFA4EFAD0FAD3084
:105A6800AD10AD10AD10AD10A4CFA4CFA4EFAD1004
:105A7800ACEFAD30AD10B530B530AD10B530B53098
:105A8800B530AD30AD10B530B530B530B530B550F6
:105A9800B550BD51BD51B550B530BD51BD51B551D1
:105AA800B551B530B551B530B530B530ACF0AD10F5
:105AB800FFFBFFFBFFFBFFFBFFFBFFFAFFB9FF99B3
:105AC800FF9AC5F5A5139CF49CB394B394B38CB317
