:020000040800F2
:1000000000000120C5310008292100082B2100082B
:100010002D2100082F2100083121000800000000D8
:100020000000000000000000000000003321000874
:100030003521000800000000372100085D05000898
:100040001532000815320008153200081532000874
:100050001532000815320008153200081532000864
:100060001532000815320008153200081532000854
:10007000E92000080D210008CD250008F925000819
:10008000111700083517000815320008153200084E
:10009000153200081532000815320008111000084A
:1000A0001532000815320008153200081532000814
:1000B00015320008000000000000000015320008A2
:1000C0001532000800000000000000001532000892
:1000D0000000000091250008153200080000000013
:1000E0001532000815320008000000000000000072
:1000F0000000000000000000000000000000000000
:1001000000000000000000000000000015320008A0
:100110000000000000000000153200081532000841
:100120001532000815320008153200081532000893
:100130001532000800000000000000000000000070
:100140001532000815320008153200081532000873
:100150001532000815320008153200081532000863
:1001600015320008153200081532000800000000A2
:1001700015320008153200080000000000000000E1
:100180001532000815320008153200080000000082
:1001900010B5054C237833B9044B13B10448AFF3C1
:1001A00000800123237010BD7800002000000000B3
:1001B0008052000808B5034B1BB103490348AFF355
:1001C000008008BD000000007C0000208052000874
:1001D000034613F8012B002AFBD1181A0138704787
:1001E00001F0FF01102A2BDB10F0070F08D010F8E8
:1001F000013B013A8B422DD010F0070F42B3F6D1EC
:10020000F0B441EA012141EA014122F007047FF004
:1002100000070023F0E80256083C85EA010586EA5B
:10022000010685FA47F5A3FA87F586FA47F6A5FA97
:1002300087F68EB9EED1F0BC01F0FF0102F00702A3
:1002400032B110F8013B013A83EA010313B1F8D14E
:100250000020704701387047002D06BF354603382F
:10026000073815F0010F07D1013015F4807F02BF68
:10027000013015F4C03F0130F0BC0138704700BFB9
:1002800030B59FB0044601214FF4006002F0C8FF72
:10029000C4F88000084D0FCD20606160A260E3606B
:1002A000782204F11001684602F0ECFF94E80F0098
:1002B00000F0C8FD1FB030BDC452000830B59FB07B
:1002C000044601214FF4006002F0AAFFC4F8800048
:1002D000084D0FCD20606160A260E360782204F1D8
:1002E0001001684602F0CEFF94E80F0000F074FDA4
:1002F0001FB030BDD452000870B59EB00446484BC4
:100300001B782BB9474B1B78002B3FD11EB070BD1B
:10031000454D464E33682B6000F0D4F830602B68B2
:10032000C01A434B18603E4D00232B703D4B0122F9
:100330001A7000F03BFE3F4B1B78A8883E4A02EB48
:10034000C3029080E988D180C3B1013B3A4A02EBF5
:10035000C3029288904205D1374A02EBC303DB887F
:10036000994206D04FF47843032209B200B200F05C
:10037000CAFF304A137801331370C3E74FF4784350
:10038000032209B200B200F0BEFFF2E700F09AF8D3
:100390002A4B1860254B1B68C01A254B1B68B0EB15
:1003A000830F03D8234B1B78632B17D9244B1A7860
:1003B000244B1A7000261B4B1E701E4DD4F8802053
:1003C00029781D4802F03CF9D4F88000FFF700FFBF
:1003D000C4F884002E701C4B01221A701B4B1B7832
:1003E000002B93D0184B1B78002B8FD0782204F170
:1003F0001001684602F046FF94E80F0000F092FCFE
:10040000D4F880402046FFF7E3FE02460021204654
:1004100002F046FF00230D4A13700B4A137075E774
:10042000EC070020A9000020A40000209C00002070
:1004300094000020CC030020AC0000209800002095
:10044000A8000020A0000020AA000020D003002067
:1004500082B0194B9A6C42F001029A649B6C03F0D3
:1004600001030193019B1549CB68154B002283F8CA
:100470000C234FF480501860C86883F80D234FF4A4
:1004800000501860C86883F80E234FF4804018604D
:10049000C86883F80F234FF400401860C86883F8D9
:1004A00010234FF480301860C96883F811234FF48B
:1004B00000321A6002B070470010024000ED00E008
:1004C00000E100E0014B1868704700BFD80300202E
:1004D0000B4B5A68002307E0801A0A4A1268B3FBE4
:1004E000F2FC02FB1C330A46054949688A1A134488
:1004F000044A1268B3FBF2F29042EDD8704700BF95
:10050000001000E0DC03002010B504E04FF47A7026
:10051000FFF7DEFF2046441E0028F7D110BD000083
:100520000A4B1B680A4AA2FB03239B0C094A13606F
:10053000094AD2F8FC3043F08073C2F8FC30A2F5CF
:100540005D42136843F0010313607047040000200C
:1005500083DE1B43DC03002000ED00E01B4B5A68E8
:100560001B4B1A601B4A1368013313601A4A138825
:1005700001339BB21380194A01211170184AA2FB62
:100580000312D20802EB82025100591A89B211B942
:10059000144A01211170144AA2FB0312520964216A
:1005A00001FB123292B212B9104A01211170104AA5
:1005B000A2FB031292094FF47A7101FB12339BB232
:1005C00013B90C4B01221A70704700BF001000E0F5
:1005D000D4030020D8030020D2030020CD03002044
:1005E000CDCCCCCCCE0300201F85EB51CF03002017
:1005F000D34D6210D0030020F8B50E461746134CB9
:10060000214603F07BF82146002003F077F80446EA
:1006100000250CE022460E49204602F0B1FF46F8C4
:10062000254001350949002003F068F804463CB133
:100630002378222BF3D16378222BEBD10024EEE731
:100640003D70002DD4BF00200120F8BDE452000809
:10065000E8520008B1F5806F01D90020704708B555
:1006600001F060FF012008BD10B50446FFF7B0FDA2
:1006700081B22046FFF7EEFF10BD00000CB42DE95B
:10068000F04782B000AF97F82850002940D081464B
:10069000884635B900200837BD46BDE8F04702B0AE
:1006A000704700230B7007F12C027A60AA00073212
:1006B00002F4FF62ADEB020D6E46AB4208D27A68DF
:1006C000111D7960126846F823200133DBB2F4E78C
:1006D0004FF0000ACA4519D244F62060FFF7F8FE31
:1006E0000024AC420FD256F824100A4BD3F800086D
:1006F00002F0EEFF10B90134E4B2F2E7013488F8F9
:1007000000400120C7E70AF1140AE3E70020C2E72E
:100710000020C0E7FC07002008B5024802F03EFDBB
:1007200008BD00BFFC0F002008B54FF48062002117
:10073000014802F0B5FD08BD1014002010B584B0CA
:100740000F48FFF791FF044610B9204604B010BDD2
:100750000C4B00930C4B02220DF10F014FF47A70F9
:10076000FFF78CFF04460028EFD09DF80F30022BD6
:1007700001D10024E9E7FFF7CFFFFFF7D5FFE4E75A
:10078000F0520008FC520008F852000870B584B01E
:1007900005460E461446FFF7BFFF64B1009433468A
:1007A0002A461249124802F0CBFE1148FFF75CFFBF
:1007B00040B904B070BD33462A460E490C4802F0D9
:1007C000BFFEF2E70C4B01930C4B00930C4B032242
:1007D0000DF10F0146F2A810FFF750FF0028E8D0F6
:1007E0009DF80F30012BE4D90020E2E71C530008EC
:1007F0001014002004530008405300084C53000814
:1008000038530008F0B585B0FFF786FF274B284A1C
:1008100007CA83E807001846FFF726FF044610B909
:10082000204605B0F0BD234B0093234B02220DF16F
:100830000F014FF47A70FFF721FF04460028EFD034
:100840009DF80F30022B2CD01C4BD3F800681C49AC
:10085000304602F03DFF054688B102352221284688
:1008600002F00EFF471B174E3A46294606F12100BB
:1008700002F01BFF3E44002386F82130D0E71249E6
:10088000304602F025FF70B10E4B0022C3F8212044
:10089000C3F82520C3F82920C3F82D20C3F8312040
:1008A000BEE70024BCE70024BAE700BF1014002014
:1008B00058530008FC520008F8520008FC070020BA
:1008C00064530008280600206853000810B586B05D
:1008D0000446FFF721FF022C15D0032C20D1274A14
:1008E000D3680293936801935368009392F902309E
:1008F00012782349234802F023FE2248FFF7B4FE72
:10090000C8B906B010BD1D4A93680193536800939F
:1009100092F9023012781C491A4802F011FEECE7F5
:10092000164A5368009392F9023012781749154815
:1009300002F006FEE1E7164B0093164B02220DF182
:1009400017014FF47A70FFF799FE0028D9D09DF86F
:100950001730022B01D10020D3E70F4B01220DF1FC
:1009600017010E48FFF78AFE18B9044B00225A708F
:10097000C7E7024B01225A70C3E700BF08060020F8
:10098000705300081014002098530008B853000852
:10099000FC520008F8520008D4530008C0D40100EB
:1009A00030B589B0FFF7B8FE204DAC46204C0FCCD7
:1009B000ACE80F002368ACF800302846FFF754FE7F
:1009C000044610B9204609B030BD1A4B00931A4BAB
:1009D00002220DF11F014FF47A70FFF74FFE04461B
:1009E0000028EFD09DF81F30022B01D10024E9E749
:1009F0001249A5F61443D3F8000802F069FE104A24
:100A000002F11803049302F11C03039302F11B0388
:100A1000029302F11A03019302F11603009302F10B
:100A200013031032074902F0ABFDCBE7101400208E
:100A3000E4530008FC520008F8520008F85300087C
:100A4000080600200854000810B50B4C0123237041
:100A5000F923A370094B636000236370FFF7A0FFC5
:100A6000E37C4D2B01D1012010BD0120FFF72EFFAB
:100A7000FFF796FFF7E700BF08060020385400088C
:100A800010B586B0FFF748FE154A164C02F5007304
:100A9000039302F5A073029302F580730193009211
:100AA00092F8213292F824220F49204602F048FDA4
:100AB0002046FFF7D9FD08B906B010BD0B4B0093D7
:100AC0000B4B02220DF117014FF47A70FFF7D6FDA0
:100AD0000028F1D09DF81730022BEDD10020EBE774
:100AE000E00300201014002048540008FC520008C5
:100AF000F852000830B585B01D4C002384F826322A
:100B0000FFF70AFEB4F8223294F82522194D01921B
:100B1000009304F5C07394F824221749284602F084
:100B20000FFD2846FFF7A0FD08B905B030BD134BF7
:100B30000093134B02220DF10F014FF47A70FFF76F
:100B40009DFD0028F1D09DF80F30022B01D100202F
:100B5000EBE70C4B01220DF10F0146F2A810FFF755
:100B60008DFD0028E1D0012284F82622DDE700BFB8
:100B7000E00300201014002078540008FC52000804
:100B8000F85200089454000870B584B000238DF822
:100B90000E30FFF7C1FD2F4C2F4BA4460FCBACE816
:100BA00007002CF8023B1B0C8CF800302046FFF7A6
:100BB0005BFD044610B9204604B070BD274B00937E
:100BC000274B02220DF10F014FF47A70FFF756FD0B
:100BD00004460028EFD09DF80F30022B01D10024ED
:100BE000E9E72049204BD3F8000802F071FD0DF130
:100BF0000E021E49FFF700FD04460028DBD01B4E05
:100C0000306802F008FB1A4D85F82002706802F087
:100C100002FB85F82102B16805F5C07002F03DFDC8
:100C2000F06802F0F8FAA5F82202706902F0F3FA0F
:100C3000003818BF012085F8250295F82032032BD3
:100C400003D9012285F82622B5E7094B002283F853
:100C50002622B0E710140020A4540008FC5200081B
:100C6000F8520008B4540008FC070020D407002004
:100C7000E003002070B582B0FFF786FF224B93F8A7
:100C8000263213B1012002B070BD1F4D002685F839
:100C90002462052385F821321C4B00930A3B1C4A31
:100CA0001C49284602F04CFC05F580731A4A92E86C
:100CB000030083E80300194A05F5A07307CA03C3BC
:100CC00023F8022B120C1A7005F5C07C144C0FCCC3
:100CD000ACE80F000FCCACE80F0094E80F00ACE8D4
:100CE0000700ACF8003042F2B323A5F8223201230A
:100CF00085F8253285F80062FFF7C2FEFFF7FAFE9D
:100D0000FFF742FFBEE700BFE00300209E75FF1F14
:100D10009075FF1FC0540008C8540008D054000844
:100D2000DC54000884B010B584B006AC84E80F0031
:100D3000FFF7F2FC204C279B009306AB1F4A92F86A
:100D400024221F49204602F0FBFB2046FFF78CFCC3
:100D5000044628B9204604B0BDE8104004B07047EE
:100D6000184B0093184B02220DF10F014FF47A70CB
:100D7000FFF784FC04460028ECD09DF80F30022BCE
:100D800001D10024E6E7269801F0CCFB0F4B00933D
:100D90000F4B02220DF10F014FF47A70FFF76EFC3A
:100DA000044628B19DF80F30022BD3D10024D1E79F
:100DB000084801F0B7FBCDE710140020E003002045
:100DC0000C550008FC520008F8520008385500087D
:100DD0002C5500084855000884B010B584B006AC06
:100DE00084E80F00FFF798FC114C06AB114A92F80B
:100DF00024221149204602F0A3FB2046FFF734FCD1
:100E000020B904B0BDE8104004B070470B4B00930C
:100E10000B4B02220DF10F014FF47A70FFF72EFCFD
:100E20000028EED09DF80F30022BEAD10020E8E731
:100E300010140020E0030020A8550008FC52000810
:100E4000F852000884B010B584B006AC84E80F00F6
:100E5000FFF762FC114C06AB114A92F824221149AB
:100E6000204602F06DFB2046FFF7FEFB20B904B0E0
:100E7000BDE8104004B070470B4B00930B4B0222AF
:100E80000DF10F014FF47A70FFF7F8FB0028EED058
:100E90009DF80F30022BEAD10020E8E71014002063
:100EA000E0030020C0550008FC520008F85200087A
:100EB00070B588B006460C461546002307930846D1
:100EC000FFF786F9024607AB00932B6821461248CC
:100ED00002F00AF918B90024204608B070BD0F4B83
:100EE000D3F80008079B2B600DF10F0204A91844EA
:100EF000FFF782FB04460028EED00499304602F04A
:100F0000CCFB059802F087F9C6F884000699D6F85C
:100F1000800002F0C2FBDFE7FC0F0020FC0700208E
:100F200010B582B04FF42253ADF80430022201A96B
:100F3000382000F019FBA424ADF80440022201A9D6
:100F4000382000F011FB01230DF103022146382067
:100F500000F05CFB9DF80310124802F053FA0123E5
:100F600001AAA821382000F051FB9DF80430112B74
:100F700002D0002002B010BD012301AAA321382015
:100F800000F044FB9DF80430062B05D0362B03D02F
:100F9000642B01D00020EDE7034B4FF400021A60F0
:100FA0000120E7E7D855000800E100E000B585B072
:100FB00010236A460021382000F028FB9DF80230FB
:100FC00003F00F03114A5370013BDBB2012B02D92E
:100FD000134600225A709DF803301B0203F470631D
:100FE0009DF804201343C3F1F0030849CB809DF81A
:100FF0000520130203F470639DF8060003438B8001
:1010000012098A7005B05DF804FB00BFEC070020F0
:101010000D4B5B6913F0200F00D170470A4B202263
:101020005A610A4B1B6913F0200F03D1084B0122B0
:101030001A707047054B1B6913F0200FEDD0044B5D
:1010400000221A70E9E700BF0004014000040048D4
:10105000EC07002070B58CB0002506950795089523
:1010600009950A950B95484CE36C43F00103E36442
:10107000E36C03F001030293029BE36C43F0020371
:10108000E364E36C03F002030193019B4FF090468D
:101090001823B362069301230793032308930223C3
:1010A0000A9306A9304601F045FC1023B36103956D
:1010B00004950595E36C43F00203E364E36C03F0ED
:1010C00002030093009B314BDA6822F0F002F02318
:1010D00093FAA3F3002B4ED0B3FA83F3012101FA64
:1010E00003F31343294AD360202403948DF814108A
:1010F00002238DF8163003A801F04EFB244BDB6869
:1011000094FAA4F4002C38D0B4FA84F464000322D6
:1011100002FA04F423EA0404202393FAA3F373B33A
:10112000B3FA83F35B00012202FA03F32343184A64
:10113000D3601268202393FAA3F313B3B3FA83F3B3
:101140005B00032101FA03F322EA0303202292FA4F
:10115000A2F20F4A13600F4BDB680F4B002183F89C
:101160001713136823F0C0031360136843F04003A0
:1011700013600CB070BD2023B0E72024C6E7202305
:10118000D0E72023DCE700BF001002400000014050
:101190000004004800ED00E000E100E038B514462E
:1011A0001D46104B1A8892B282421AD90E4B1B88E8
:1011B0009BB28B4215D90A190B4B1B889BB29A42E2
:1011C00004DD094B1C88A4B2641AA4B263189BB254
:1011D000013B9BB2024600F0F1FA2146284600F09E
:1011E00081FC38BD02000020000000202DE9F04FF6
:1011F00087B00390049116469846BDF84430059395
:1012000093B2C3F1010424B2C3EBC3335B001BB23E
:101210000193BDF9403001339BB202939146002502
:101220004FF0010A19E0B1B24A0092B2029B1A448F
:10123000049B591A039B0BEB0300059B92B289B2E6
:1012400080B2FFF7ABFF26E04E4506D018F0010F45
:1012500035D118F0020F42D1B146B54250DA002C18
:1012600008DB013E36B2019B02331AB2019214FA36
:1012700083F424B2AFB27D1C1FFA85FB2DB20AF1B4
:1012800002030FFA83FA14FA83F424B2AE42DBDBD2
:1012900018F0010FC7D118F0020FD5D0B1B24A0033
:1012A00092B2029B1A44049B591A039BA3EB0B00B6
:1012B000059B92B289B280B2FFF770FFC4E77A0053
:1012C00092B2029B1A44049BD91B039B03EB0900B7
:1012D000059B92B289B280B2FFF760FFB9E77A004E
:1012E00092B2029B1A44049BD91B039BA3EB0900F7
:1012F000059B92B289B280B2FFF750FFB146ACE7CE
:1013000007B0BDE8F08FF0B583B004460D46164631
:101310001F4691B24FEA410C1FFA8CFC0CF1010CF4
:10132000691A1FFA8CF289B280B2FFF737FF019772
:10133000002300930323324629462046FFF756FF39
:1013400003B0F0BD70B590B07E4BDB687E4A0023E1
:1013500082F81F334FF00041116009930A930B93F9
:101360000C930D930E930F9303930493059306939D
:1013700007930893754CD4F8883023F44053C4F88D
:101380008830E36C43F00203E364E36C03F0020390
:101390000293029BC0260396022304930323059322
:1013A00001230693079304230893694D03A9284654
:1013B00001F0C0FAAE61A36D43F40013A365A36D01
:1013C00003F400130193019B624BDA6E42F01002AA
:1013D000DA66DA6E22F02002DA66DA6E22F0400275
:1013E000DA66DA6E42F08002DA66DA6E22F4407271
:1013F000DA66DA6E22F44062DA66574A5A67DA6EC3
:1014000042F44052DA66D3F8A82022F470024FF476
:10141000700393FAA3F3002B00F08F80B3FA83F3E9
:10142000032101FA03F31A434A4BC3F8A820D3F867
:10143000802022F01002C3F88020D3F8802022F010
:101440002002C3F88020D3F8802022F04002C3F8A5
:101450008020D3F8802042F08002C3F88020D3F8A7
:10146000802022F44072C3F88020D3F8802022F438
:101470004062C3F88020394AC3F88820D3F880201E
:1014800042F44052C3F88020D3F8A82022F07062C2
:101490004FF0706393FAA3F3002B50D0B3FA83F3A9
:1014A000032101FA03F31A432A4BC3F8A820DA6E8A
:1014B00042F00202DA66DA6E42F00802DA66D3F827
:1014C000802042F00202C3F88020D3F8802042F04E
:1014D0000802C3F88020224C236823F00103236014
:1014E000636843F000736360E36823F40043E360E0
:1014F000236823F400232360236823F4003323604C
:1015000000230993174A0A920B930C930D930E93A1
:101510000F9309A9204601F0CCFAE36823F4FF6396
:1015200023F00603E360236843F4804323602368C9
:1015300043F40043236010B070BD202370E72023E4
:10154000AEE700BF00ED00E000E100E00010024067
:101550000004004800000240285400402454004089
:1015600000540040EC9C901010B5254B05241C70D5
:10157000244CE36E23F00103E366224BDB6E13F091
:10158000010FFAD11F4B1A679967D96E41F001011B
:10159000D966A3F5D633596821F47F7121F0030190
:1015A0005960596841EA40015960596821F48061E5
:1015B0005960596821F47F015960596841EA024233
:1015C0005A605A6842F000725A605A6842F40052F7
:1015D0005A600D4B1B7873B94FF0E0231B6913F46D
:1015E000803FF6D0064A1378591E1170002BF0D1B7
:1015F00000F028FBEDE7044B00221A7010BD00BF7D
:10160000F407002000000240F607002030B482B04A
:101610008DF807103A4CE16E21F00101E16638497E
:10162000C96E11F0010FFAD1354901240C670DF193
:1016300007048C67CC6E44F00104CC66A1F5D6316A
:101640004C6824F47F7424F003044C604D6844001B
:1016500045EA40004860486820F480604860486877
:1016600020F47F004860486840F480304860486853
:1016700040F000704860486840F4005048602149DC
:1016800009780029FBD01F49002008701C48D0F8B9
:10169000801021F00101C0F880101949D1F88010A4
:1016A00011F0010FF9D11649C1F88430C1F88C202E
:1016B000D1F8802042F00102C1F88020124A51681E
:1016C00021435160516841F480615160516821F4B7
:1016D0007F015160516841EA03435360536843F00E
:1016E00000735360536843F400535360074B1B78F7
:1016F000002BFBD0054B00221A7002B030BC7047A3
:1017000000000240F607002000540040F5070020CA
:10171000064B1B6813F4001F07D0044A536843F4B8
:1017200000135360024B01221A7070470000024000
:10173000F6070020064B1B6813F0007F07D0044A11
:10174000536843F000735360024B01221A707047D4
:1017500000000240F507002010B582B08DF80700A8
:101760004FF09044A36943F40023A361A36943F4B9
:101770008013A361012205490DF1070000F07EFCF2
:10178000A36943F01003A36102B010BDF807002065
:1017900010B50A464FF09044A36943F00803A361D3
:1017A000A36943F48013A361034900F067FCA369B4
:1017B00043F01003A36110BDF7070020F0B583B01C
:1017C00007460D4616461C462A20FFF7C5FF3B0A72
:1017D0008DF804308DF80570330A8DF806308DF8D9
:1017E000076004210DEB0100FFF7D2FF2B20FFF76C
:1017F000B3FF2B0A8DF804308DF80550230A8DF8BD
:1018000006308DF8074004210DEB0100FFF7C0FF03
:101810002C20FFF7A1FF03B0F0BD000010B50B4C6A
:10182000A36943F40033A361C820FEF76DFE4FF0B7
:101830009042936943F480139361C820FEF764FEDD
:10184000A36943F00203A36110BD00BF0004004878
:1018500010B582B004463620FFF77EFF0120FEF768
:1018600053FE032C12D8DFE804F00213233348237D
:101870008DF8073001210DF10700FFF789FF1C4BA0
:10188000F0221A801B4B4FF4A0721A8002B010BDD8
:1018900028238DF8073001210DF10700FFF778FFAD
:1018A000134B4FF4A0721A80124BF0221A80EDE70E
:1018B00088238DF8073001210DF10700FFF768FF3D
:1018C0000B4BF0221A800B4B4FF4A0721A80DDE70D
:1018D000E8238DF8073001210DF10700FFF758FFCD
:1018E000034B4FF4A0721A80024BF0221A80CDE70E
:1018F000020000200000002030B585B0FFF78EFF09
:101900004FF09042936943F0100393610120FFF779
:1019100023FF4FF47A70FEF7F7FDCB20FFF71CFF93
:101920006C4C94E8030000908DF804100521684683
:10193000FFF72EFFCF20FFF70FFFA368ADF80030B1
:101940001B0C8DF8023003216846FFF721FFE820C9
:10195000FFF702FFE368ADF800301B0C8DF8023092
:1019600003216846FFF714FFEA20FFF7F5FE002584
:10197000ADF8005002216846FFF70AFFED20FFF79F
:10198000EBFE554B009304216846FFF701FFF7205B
:10199000FFF7E2FE20238DF8003001216846FFF7B3
:1019A000F7FEC020FFF7D8FE23238DF80030012179
:1019B0006846FFF7EDFEC120FFF7CEFE10238DF83D
:1019C000003001216846FFF7E3FEC520FFF7C4FEA3
:1019D00042F63E03ADF8003002216846FFF7D8FE1C
:1019E000C720FFF7B9FE86238DF800300121684635
:1019F000FFF7CEFE3620FFF7AFFE48238DF800300C
:101A000001216846FFF7C4FE3A20FFF7A5FE5523E3
:101A10008DF8003001216846FFF7BAFEB120FFF7CC
:101A20009BFE4FF4C053ADF8003002216846FFF72B
:101A3000AFFEB620FFF790FE284B1B68ADF80030D4
:101A40001B0C8DF8023003216846FFF7A1FEF2203F
:101A5000FFF782FE8DF8005001216846FFF798FEDF
:101A60002620FFF779FE01218DF800106846FFF768
:101A70008FFEE020FFF770FE194BEC460FCBACE871
:101A800007002CF8023B1B0C8CF800300F21684635
:101A9000FFF77EFEE120FFF75FFEEC46103494E88E
:101AA0000F00ACE807002CF8023B1B0C8CF8003050
:101AB0000F216846FFF76CFE1120FFF74DFE7820DE
:101AC000FEF722FD2920FFF747FE0320FFF7C0FEA7
:101AD00005B030BD9852000864031281E855000833
:101AE000EC5500082DE9F84300AF4E0047F22F53A4
:101AF000B3EB410F0AD247F23055010AEB1D23F038
:101B00000703ADEB030D6C46002305E03546F4E713
:101B1000E1545A1CA0540233AB42F9D3B6FBF5F89A
:101B200005FB18694FF090439A6942F008029A61E8
:101B30009A6942F480129A61AE420BD2B9F1000F59
:101B400012D14FF09042936943F010039361BD4668
:101B5000BDE8F88300264645F0D22A4605492046CE
:101B600000F08CFA0136F6E74A460249204600F0BA
:101B700085FAE6E7F907002070B50446094E328879
:101B8000094D2B889BB292B200210846FFF716FE42
:101B900033889BB2298889B203FB01F12046FFF705
:101BA000A1FF70BD0200002000000020B0F5A07F62
:101BB00044D2F8B515461C46EF2906D88318B3F56C
:101BC000A07F02DC0B19F02B00DDF8BD821892B269
:101BD0009BB2013B013A9BB292B2FFF7EFFD04FBCF
:101BE00005F3590047F22F52B2EB430F0CD2144DBC
:101BF000A5FB01356E0BC5F3473547F2305303FBA8
:101C00001616B7B200240CE00698FFF7C1FDDCE71A
:101C100047F23051069B01FB0430FFF7B9FD013458
:101C2000E4B2AC42F4D3002FCFD0B1B247F230507F
:101C3000069B00FB0430FFF7ABFDC6E7704700BF13
:101C400073B2E745024A936943F008039361704712
:101C50000004004872B6FEE708B5324A136823F064
:101C6000070343F0040313602E4B1B6803F00703C4
:101C7000042BF9D12C4A136823F4C06343F4007396
:101C8000136002F5D032136843F001031360274B51
:101C90001B6813F0020FFAD0244B1A6842F00802B6
:101CA0001A601A6822F0F00242F060021A605A6864
:101CB00022F47F425A60D9681D4A0A4042F42052F9
:101CC00042F00102DA60DA6842F08072DA601A6883
:101CD00042F080721A60154B1B6813F0007FFAD037
:101CE000124A936843F003039360104B9B6803F020
:101CF0000C030C2BF9D10D4B9A6822F0F0029A607C
:101D00009A6822F4E0629A609A6822F460529A60BB
:101D1000084801F015F90F2000F0B8FC00B908BD23
:101D2000FFF798FF002002400070004000100240C2
:101D30008C80FFF900B4C40400B5CBB04A4B1A6ED6
:101D400042F001021A661A6E02F001020492049A2D
:101D50009A6D42F080529A659B6D03F08053039315
:101D6000039B032000F0BAFC00220F214FF0FF304C
:101D700000F0C6FC3D4B1B683D4AA2FB03239B09B8
:101D8000013BB3F1807F0AD24FF0E0225361394B1F
:101D9000F02183F823100023936107231361FFF7D9
:101DA0005BFFFEF7BDFBFEF753FBFFF753F900F0B7
:101DB00087F8FFF7C7FA00F003FA00F013FBFFF70C
:101DC0009BFDFFF7ADF8C0B12B4801F0A1FB1F2030
:101DD000FFF7D2FE294B0093F0234FF4A0720021AD
:101DE0000846FFF7E3FE26494FF48062A1F1140094
:101DF00001F0ACF8FEF7A2FC0CE0224801F088FBF1
:101E0000E5E7002220492148FEF7C0FC4FF47A7034
:101E1000FEF77AFBFEF7F6FC0028F2D0FEF714FE80
:101E2000FEF728FF28A8FEF72BFA06A8FEF746FAC9
:101E30000023059305E0164801F0B0F9154B002288
:101E40001A7028A8FEF758FA124B1B78002BF8D00E
:101E500005AA114906A8FFF72BF80028EBD0792036
:101E600000F024FBE7E700BF001002400400002060
:101E7000D34D621000ED00E0FC5500084C56000800
:101E8000101000200C5600081856000824560008B0
:101E9000FC0F0020CD0300203C560008064B1B78A9
:101EA000002BFBD0054A136823F040031360024B5C
:101EB00000221A70704700BFFA070020003001406E
:101EC00010B592B02822002108A801F0E9F90023FA
:101ED00002930393049305930693079303F18043BE
:101EE00003F504331A6E42F480521A661A6E02F435
:101EF00080520192019ADA6C42F00102DA64DB6CE2
:101F000003F001030093009BE02302930223039359
:101F10000322049206930523079302A94FF09040F1
:101F200000F008FD524AD36923F4FF4323F0700305
:101F300043F40253D3614F49D36923F47F5323F011
:101F40002F035B045B0C102B00F08380484B59621D
:101F500000229A62464A136A1B0C1B0443F00103D9
:101F60001362D2F8A82022F0F002F02393FAA3F330
:101F7000002B73D0B3FA83F3012000FA03F3134369
:101F80003B4AC2F8A830136B23F4FF4323F07003DD
:101F900043F4025343F010031363136B23F47F5392
:101FA00023F02F035B045B0C102B59D0304B002225
:101FB0009A63D9632E4A536B1B0C1B0443F0010335
:101FC0005363D2F8A82022F470624FF4706393FA3E
:101FD000A3F3002B49D0B3FA83F3012101FA03F3F1
:101FE0001343234AC2F8A830D36943F00203D361F4
:101FF000136B43F002031363002308934FF48272C0
:1020000009924FF4E0620A920B930C934FF4007222
:102010000D920E930F93109307231193164C08A95A
:10202000204600F0F9FE636823F0100363606368E4
:1020300043F008036360636843F48053636063683C
:1020400043F001036360636843F00203636012B00E
:1020500010BD1346916200225A627BE720238BE772
:1020600013460022DA639963A4E72023B5E700BF93
:10207000000002400C3001400030014010B5184C07
:10208000E36923F00103E361154BDB6913F0010FF2
:10209000FAD1134B1C6A240C24041C621A62996244
:1020A000196B21F0010119630D4B1B6B13F0010F2C
:1020B000FAD10B4B596B090C090459635A63D86365
:1020C00008490A6842F040020A60DA6942F00102F7
:1020D000DA611A6B42F001021A63FFF7DFFE10BDEE
:1020E0000000024000300140064B1B6813F0200F37
:1020F00007D0044A536843F020035360024B012287
:102100001A70704700000240FA070020054B1B6858
:1021100013F4007F04D0034A536843F40073536000
:10212000704700BF00000240FEE7FEE7FEE7FEE763
:10213000FEE77047704770470120704708B501F00F
:1021400077F8162303604FF0FF3008BD08B54FF055
:10215000FF31FFF7F3FFFEE770B50C46164600258A
:1021600006E0AFF30080214601F8010B01350C4673
:10217000B542F6DB304670BD70B50C4616460025FC
:1021800004E014F8010B00F0FBF90135B542F8DB6F
:10219000304670BD4FF0FF3070474FF400534B6036
:1021A000002070470120704700207047034AD2F892
:1021B000883043F47003C2F88830704700ED00E0C7
:1021C00010B590B0002309930A930B930C930D93D1
:1021D0000E930F9303930493059306930793089329
:1021E00003F1804303F50433D3F8882022F003027F
:1021F000C3F888201A6E42F480421A661A6E02F4FE
:1022000080420292029ADA6C42F00102DA64DB6CDC
:1022100003F001030193019B4FF4C0630393022376
:102220000493032305930723089303A94FF09040D9
:1022300000F080FB634BD3F8A82022F470224FF407
:10224000702393FAA3F3002B00F0B780B3FA83F363
:10225000022101FA03F31A435A4BC3F8A8209A6DDE
:1022600022F4804222F010029A659A6D22F44052C4
:102270009A659A6D22F020029A659A6D22F04002CA
:102280009A659A6D42F080029A659A6D22F44072C6
:102290009A659A6D22F440629A654B4A1A664B4AD7
:1022A0005A66DA6D120C120442F40062DA65D3F851
:1022B000A82022F470424FF4704393FAA3F3002B4A
:1022C0007DD0B3FA83F3022101FA03F31A433D4BA5
:1022D000C3F8A8205A6C22F4804222F0100242F087
:1022E00010025A645A6C22F440525A645A6C22F01A
:1022F00020025A645A6C22F040025A645A6C42F02E
:1023000080025A645A6C22F440725A645A6C22F465
:1023100040625A642E4ADA645A6C0A435A649A6DCF
:1023200042F004029A659A6D0A439A654FF4E133CC
:10233000099300230A930B930C930C220D920E9396
:102340000F93244C09A9204600F0A4FD636823F4F0
:1023500090436360A36823F02A03A3601E4B53E8F5
:10236000002F42F0400243E800210029F6D153E853
:10237000002F42F0800243E800210029F7D1154ADE
:1023800052E8003F43F0100342E800310029F6D143
:10239000124BDB68124B002283F8252320225A605F
:1023A000084A936D43F001039365A2F54842136810
:1023B00043F00103136010B010BD202348E7202331
:1023C00081E700BF0000024024380140FC070020E4
:1023D00028380140003801400838014000ED00E095
:1023E00000E100E070B590B0002409940A940B94C9
:1023F0000C940D940E940F940394049405940694F5
:1024000007940894274BD3F8882022F00C02C3F8D5
:1024100088209A6D42F400329A659A6D02F4003277
:102420000292029ADA6C42F00102DA64DB6C03F089
:1024300001030193019B04230393022604960325C1
:1024400005950723089303A94FF0904000F072FA16
:102450004FF400430393049605950694079408955A
:1024600003A94FF0904000F065FA4FF4E13309936F
:102470000A940B940C940C230D930E940F940A4C15
:1024800009A9204600F006FD636823F490436360C9
:10249000A36823F02A03A360236843F001032360A9
:1024A00010B070BD0010024000440040044BDB69D6
:1024B00013F0800FFAD080B2014B1885704700BF2F
:1024C0000044004008B50A460146024800F06AFD93
:1024D00008BD00BFFC0F002010B50F4BDC6DA4B28F
:1024E000C4F500640D4B1B68A34207D007D2E11A64
:1024F0000B481844FFF7E6FF084B1C6010BDC3F5FE
:10250000006107481844FFF7DDFF002CF4D0214696
:102510000348FFF7D7FFEFE7000002401018002044
:10252000FC07002010B50446FDF752FE114A536C1B
:1025300023F0010353640F4B5B6C13F0010FFAD1CE
:102540000C4B98641C650C4A52E8003F43F0800332
:1025500042E800310029F6D1064A536C43F00103EA
:102560005364064B1B78002BFBD0044B00221A70DF
:1025700010BD00BF000002400838014014180020C0
:1025800010B50446C0B2FFF791FF204610BD000011
:1025900008B50D4B1B6813F0100F09D00A4BDB690F
:1025A00013F0100F04D0084B10221A62FFF794FFAB
:1025B000054BDB6913F0080F04D0034A136A43F09C
:1025C0000803136208BD00BF00380140084B5B6C74
:1025D00013F0020F0BD0064B1B6813F4005F06D0FC
:1025E000034B4FF400525A60024B01221A7070479D
:1025F000000002401418002008B5104B9B6D13F02A
:10260000040F0AD00D4B1B6813F4802F05D00B4B21
:102610004FF480225A60FFF75FFF084B9B6D13F069
:10262000020F0AD0054B1B6813F4003F05D0034B83
:102630004FF400325A60FFF74FFF08BD0000024020
:10264000F0B585B007460D461646002409E00D4951
:10265000684600F075FF6946304601F002F8013423
:10266000E4B2AC420BD207EBC4039A88DB88691E44
:10267000A142ECD90449684600F062FFEBE705B0DF
:10268000F0BD00BF9CAE020894AE0208104B1B7850
:102690000BB90120704710B504464FF47A70B0FBB7
:1026A000F3F30C4A1068B0FBF3F000F061F868B97E
:1026B0000F2C01D901200AE0002221464FF0FF3003
:1026C00000F01EF8044B1C60002000E0012010BD4B
:1026D00008000020040000200C000020074AD368F6
:1026E00023F4E0631B041B0C000200F4E0600343CE
:1026F00043F0BF6343F40033D360704700ED00E064
:1027000000B5194BDB68C3F30223C3F1070CBCF11E
:10271000040F28BF4FF0040C03F1040EBEF1060FA6
:1027200018D9033B4FF0FF3E0EFA0CFC21EA0C01D6
:1027300099400EFA03F322EA0303194300280BDB46
:102740000901C9B200F1604000F5614080F8001352
:102750005DF804FB0023E5E700F00F000901C9B2B2
:10276000024B1954F4E700BF00ED00E014ED00E067
:102770000138B0F1807F0BD24FF0E0235861054A59
:10278000F02182F823100020986107221A61704717
:102790000120704700ED00E00346027A002A00F0B5
:1027A000B08010B4006800283FD05A7A012A1DD0AA
:1027B000022A26D062B101209A7A002A35D0022A54
:1027C0003FD0032A48D0012A25D040F002002CE057
:1027D00002F1804202F58232516821EA0000506025
:1027E00019681068014311600020E5E7504A11683C
:1027F00021EA000010601968506801435160002010
:10280000DAE74B4A116808431060196850680143C1
:1028100051600020D0E71C68454AD16821EA0401D4
:10282000D16019689468214391605A68002A32D0B7
:10283000597A012932D002293AD0B9B140F00400C6
:1028400020E01C683A4A916821EA04019160196805
:10285000D4682143D160E8E71968354A9468214378
:1028600091601968D4682143D160DEE701F18041AD
:1028700001F582314C6A24EA02024A625A680C6A03
:1028800022430A629A7A32B1022A25D0032A2ED034
:10289000012A16D001205DF8044B704724490C6AC8
:1028A00024EA02020A625A684C6A22434A62E9E751
:1028B0001F490C6A22430A625A684C6A22434A62E0
:1028C000E0E75C681A4AD16A21EA0401D1625B68D8
:1028D000916A0B439362DEE75C68154A916A21EACC
:1028E000040191625B68D16A0B43D362D3E75968F4
:1028F0000F4A946A214391625B68D16A0B43D362A9
:10290000C9E700680A4A116821EA000111601868E5
:10291000516821EA000151605868116A21EA0001FA
:1029200011625968536A23EA010353620020704719
:1029300000040140F0B40A6892FAA2F212B1B2FAAD
:1029400082F24EE020224CE08E68856893FAA3F470
:10295000E4B1B4FA84F464004FF0030C0CFA04F40C
:1029600025EA040593FAA3F494B1B4FA84F464005C
:1029700006FA04F42C4384600D68CE68446824EAA7
:10298000050406FB05F52C43446039E02024E2E70A
:102990002024ECE720243BE0202446E0202456E0DD
:1029A0002024A40006FA04F42C4304624E6805684F
:1029B00093FAA3F4002C75D0B4FA84F464004FF0B9
:1029C000030C0CFA04F425EA040493FAA3F3002B95
:1029D0006AD0B3FA83F35B0006FA03F32343036080
:1029E00001320B6833FA02F460D04FF0010C0CFA9C
:1029F00002FC1CEA0303F3D04C68013C012CA3D970
:102A00000E69C56893FAA3F4002CC3D0B4FA84F419
:102A100064004FF0030C0CFA04F425EA040593FA61
:102A2000A3F4002CB8D0B4FA84F4640006FA04F4D9
:102A30002C43C4604C68022CB8D1FF2B14D84E69CB
:102A4000056A93FAA3F4002CA8D0B4FA84F4A40085
:102A50000F2707FA04F425EA040593FAA3F4002CDF
:102A60009ED0B4FA84F49CE74F69466A1C0A94FA33
:102A7000A4F59DB1B5FA85F5AD004FF00F0C0CFA39
:102A800005F526EA050594FAA4F44CB1B4FA84F4E9
:102A9000A40007FA04F42C43446287E72025EBE7FF
:102AA0002024F5E7202489E7202394E70020F0BCC8
:102AB000704710B4036823F0010303608A68036859
:102AC00023F4F853CC6842EA0422134303604B68B2
:102AD0000361036843F001030360836823F4004348
:102AE00083600A69836823F4FF6323F007038C691A
:102AF0002243134383600B691BB1836843F4004393
:102B000083600B68026822F44012134303604B6930
:102B1000426822F400421343436000205DF8044BF6
:102B200070470000034B9B68C3F30313024AD35C56
:102B3000D8407047001002404CAE0208034B9B681F
:102B4000C3F30223024AD35CD8407047001002400E
:102B50005CAE0208034B9B68C3F3C223024AD35CFA
:102B6000D8407047001002405CAE02083A4BDB6868
:102B700003F00303022B57D0032B57D0012B12D0A5
:102B8000354B1B6813F0080337D1334A126812F033
:102B9000080F41D1304BD3F89430C3F303232F4AAD
:102BA00052F8230043E02C4B1B6813F008030ED0AF
:102BB000294B1B6813F0080F1AD1274BD3F8943018
:102BC0001B0903F0F003254A52F823002FE0224AA4
:102BD000126812F0080F08D11F4BD3F89430C3F3DA
:102BE00003231E4A52F8230021E01B4A1268F8E72B
:102BF000194B1B68C3F30313E5E7174B1B6813F06E
:102C0000080F0CD1144BD3F894301B0903F0F003D8
:102C1000124A52F823000AE00F4A1268BFE70E4B2F
:102C20001B68C3F30313F3E70D4800E00D480A4A9D
:102C3000D368C3F302130133B0FBF3F0D368C3F3DB
:102C4000062303FB00F0D368C3F3416301335B0049
:102C5000B0FBF3F0704700BF0010024064AE020802
:102C60000024F40000127A0008B5354B9B6803F08D
:102C70000C030C2B37D8DFE803F00936363607365D
:102C800036366036363633002E482BE02C4B1B6828
:102C900013F008030ED02A4B1B6813F0080F1AD14B
:102CA000274BD3F894301B0903F0F003264A52F85F
:102CB000230017E0224A126812F0080F08D1204BB7
:102CC000D3F89430C3F303231F4A52F8230009E0DA
:102CD0001B4A1268F8E71A4B1B68C3F30313E5E7B6
:102CE000FFF744FF08BD164B1B6813F008030DD116
:102CF000134A126812F0080F17D1114BD3F8943011
:102D0000C3F30323104A52F82300EBE70C4B1B6874
:102D100013F0080F0CD10A4BD3F894301B0903F0C1
:102D2000F003094A52F82300DCE7054A1268E9E794
:102D3000034B1B68C3F30313F3E70448D2E700BF58
:102D4000001002400024F40064AE020800127A0071
:102D500008B5032803D00C2829D0002008BD2C4B2F
:102D6000D3F88830034043EA0040A0F54030032800
:102D70004AD8DFE800F01502050CFFF775FFEDE714
:102D8000234B186810F48060E8D02248E6E7204B17
:102D9000D3F8900010F00200E0D04FF40040DDE7DF
:102DA000FFF762FFFFF7BEFEFFF7D4FED6E7184B32
:102DB000D3F88830034043EA0040A0F540200C28B7
:102DC00024D8DFE800F01A232323072323230A2330
:102DD00023231100FFF748FFC0E70D4B186810F4DC
:102DE0008060BBD00B48B9E7094BD3F8900010F0D6
:102DF0000200B3D04FF40040B0E7FFF735FFFFF714
:102E000091FEFFF79BFEA9E70020A7E70020A5E7BA
:102E1000001002400024F400036813F0400F36D184
:102E200010B4026822F47F4222F0BF020B684C68A3
:102E30002343CC6823430C6923434C6923438C69A7
:102E40002343CC6923430C6A234313430360436841
:102E500023F4706323F004038A68B1F816C042EAD1
:102E60000C02134343608B68B3F5006F03D24368D1
:102E700043F4805343600B6AB3F5005F03D0002036
:102E80005DF8044B70478B8C03610020F8E701204C
:102E90007047000038B5036813F0010F46D10446AF
:102EA0000D460368234A1A404B68C9680B432969D9
:102EB0000B43A9690B4313430360AB68426822F4D8
:102EC0004052134343606B69826822F4407213439B
:102ED0008360194B984204D0184B984209D00120C6
:102EE00025E00320FFF734FF10B32A682AB9012038
:102EF0001DE00C20FFF72CFFF6E7AB69B3F5004FA0
:102F000007D000EB5203B3FBF2F39BB2E360002067
:102F10000DE0530803EB4003B3FBF2F34FF6F072FE
:102F20001A40C3F342031343E360F0E7012038BDC6
:102F30000120FCE7F369FFEF003801400044004046
:102F4000014B1860704700BF04000020034658B1D1
:102F500061B10AB900207047002018615A601960F9
:102F6000D8609860012070470020704700207047AB
:102F7000034698B102689AB1406800B97047DA68B0
:102F80009868824203D0824204D2801A00E05868D6
:102F9000013870475B68801A1844F9E700207047D1
:102FA0000020EBE72DE9F041002841D00F461546FF
:102FB00006460368002B3DD044681CB100293BD075
:102FC0001AB914462046BDE8F081FFF7D1FF2C4620
:102FD000854228BF0446002CF4D0D6F80C80BFF3FD
:102FE0005B8F7568A5EB0805A54228BF25463068AC
:102FF0002A463946404400F045F908EB0503B4EB96
:1030000005080ED172689A4200D80023BFF35B8F87
:10301000F3603369002BD5D0224601213046984712
:10302000D0E742467919306800F02CF94346E9E7C9
:103030000024C7E70024C5E70024C3E7034678B1AE
:1030400002687AB1406800B97047D8689A689042BF
:103050000AD001D9801A70475B68801A18447047FB
:1030600000207047002070470020EDE72DE9F04177
:10307000A0B30E4617461D468046036883B34468D6
:1030800014B17AB31DB92C462046BDE8F081FFF794
:10309000D5FFB04201D80024F6E7D8F80830334411
:1030A000841BD8F804209A4200D89B1AAC4228BF4F
:1030B0002C46002CE8D0D51AA54228BF2546D8F8C2
:1030C00000102A461944384600F0DCF8621BDBD0B9
:1030D000D8F80010781900F0D5F8D5E70024D3E728
:1030E0000024D1E70024CFE72DE9F04782B0002883
:1030F0003CD00F4616461D4680460368002B38D04C
:103100004368002B38D000293CD0002A3DD00A9BD0
:10311000002B3DD000230A9A1360FFF78FFF8246F1
:103120007319834237D84FF0000907E04FF00109C7
:10313000B9F1000F01D00A9B1D600135B9F1000FF4
:103140001CD155451AD20024B442EFD201230DF10F
:10315000070229194046FFF789FF0028E8D03A5DA9
:103160009DF807309A42E3D10134EDE74FF00009B2
:1031700004E04FF0000901E04FF00009484602B0BA
:10318000BDE8F0874FF00009F8E74FF00009F5E7D8
:103190004FF00009F2E74FF00009EFE718B10268BD
:1031A0000AB1426802B9704710B5BFF35B8F0022C5
:1031B000C260BFF35B8F826004690CB10221A0473B
:1031C00010BD0000DFF834D0FEF7F0FF0C480D49C9
:1031D0000D4A002302E0D458C4500433C4188C4272
:1031E000F9D30A4A0A4C002301E013600432A242D8
:1031F000FBD300F023F8FEF79FFDFEE7000001205F
:10320000000000207800002018B10208780000209B
:103210002C180020FEE70A22002100F04FBB00001E
:10322000024B0A460146186800F042B81000002020
:10323000014B1868704700BF1000002070B50D4D9D
:103240000D4C641BA4100026A64209D10B4D0C4C5A
:1032500002F016F8641BA4100026A64205D170BD2A
:1032600055F8043B98470136EEE755F8043B98477C
:103270000136F2E708B1020808B1020808B10208F5
:103280000CB102080A44914200F1FF3300D17047AB
:1032900010B511F8014B03F8014F9142F9D110BD5F
:1032A00002440346934200D1704703F8011BF9E73B
:1032B00037B5A1FB02244CB91146019200F02EF85B
:1032C000019A054630B9284603B030BD0C22026091
:1032D0000025F8E72146FFF7E3FFF4E770B50E4E4F
:1032E0000C463168054611B900F01AF930602146E4
:1032F000284600F015F9431C0AD0C41C24F003042E
:10330000A04207D0211A284600F00AF9013001D165
:103310004FF0FF34204670BD1C1800202DE9F0410D
:10332000CD1C25F0030508350C2D38BF0C25002DCC
:10333000074601DBA94205D90C233B600026304635
:10334000BDE8F0812E4E00F00FFE33681C4634BB02
:1033500029463846FFF7C2FF431C04464DD1346866
:103360002646002E40D123683146384604EB030838
:1033700000F0D6F880453AD1216803356D1A25F062
:10338000030508350C2D38BF0C2529463846FFF7B4
:10339000A5FF01302BD023682B4423600EE0226868
:1033A000521B1ED40B2A16D96119A342256018BFDF
:1033B0005960636808BF316062514B60384604F160
:1033C0000B0600F0D7FD26F00706231DF21AB6D033
:1033D0009B1BA350B3E76268A3420CBF32605A60E4
:1033E000ECE723466468B2E734467668B9E70C2315
:1033F0003B60384600F0BEFDA1E72560DEE700BF78
:10340000181800200FB40A4B13B51C6824B1A36927
:1034100013B9204600F076FC05AB049AA16801932D
:10342000204601F051F902B0BDE8104004B07047E9
:103430001000002070B50E46054618B183690BB91F
:1034400000F060FCAB69AC6813B9284600F05AFC88
:103450002C4B9C4220D16C68636EDB0705D4A3899A
:10346000980502D4A06D00F0FDFCA38919071DD5B5
:103470002369DBB1013EA36816F8011F013BA3607D
:1034800039BB002B38DA22460A21284600F020FA00
:10349000013011D00A2511E01B4B9C4201D1AC68D0
:1034A000DAE71A4B9C4208BFEC68D5E7214628466C
:1034B00000F072FA0028DDD04FF0FF35636EDA07B6
:1034C00005D4A3899B0502D4A06D00F0CCFC28464E
:1034D00070BD002B04DAA2699A4206DC0A2904D0E6
:1034E00023685A1C22601970C5E72246284600F05E
:1034F000EFF90130BFD1DFE723680A255A1C2260AB
:103500001D70DBE778B0020898B0020858B00208D6
:10351000024B01461868FFF78DBF00BF1000002066
:1035200038B5064D0023044608462B6001F09AFE8C
:10353000431C02D12B6803B1236038BD241800203E
:103540000EB400B59CB01DAB029006906FF0004128
:10355000094807910491094953F8042B0591006823
:10356000019302A900F0B4FD029B00221A701CB066
:103570005DF804EB03B07047100000200802FFFF65
:103580000EB410B59FB021AC4FF4017154F8042B68
:103590000192ADF81C1004900890FCF719FE0C4B3A
:1035A000059009900D930B48019A0068039400233D
:1035B000119316934FF6FF73ADF81E3004A92346FE
:1035C00000F0E0FE1FB0BDE8104003B0704700BF40
:1035D000FB3500081000002010B50C46B1F90E10A4
:1035E00001F088FC0028ABBF636DA3891B1823F48E
:1035F0008053ACBF6365A38110BD002070472DE9E7
:10360000F0411F468B89DB0505460C46164605D55D
:10361000B1F90E100223002200F026FCA389B4F9B0
:103620000E1023F48053A38132463B462846BDE862
:10363000F04100F09FB910B50C46B1F90E1000F042
:1036400013FC431CA38915BF606523F4805343F426
:103650008053A38118BFA38110BDB1F90E1000F0F3
:1036600027BA10B50246147813460132002CFAD15D
:10367000013B11F8012B03F8012F002AF9D110BDED
:10368000C9B2034610F8012B1AB18A42F9D1184683
:103690007047002918BF0023F9E7034611F8012BF2
:1036A00003F8012B002AF9D1704710B50139034600
:1036B00032B111F8014F03F8014B013A002CF7D158
:1036C0001A440021934200D110BD03F8011BF9E711
:1036D0000A7870B56AB970BD9A4209D10C460546A0
:1036E00014F8013F002BF6D015F8016F9E42F7D079
:1036F00001300378002BEFD11846ECE7164B73B579
:103700001E68B46D0546FCB95020019100F024FC00
:103710000199B065024620B9104B1148572100F0BD
:10372000A9F9C0E90044C0E90244C0E90444C0E981
:103730000A44C0E90C44C0E90E44C0E91044C0E9A1
:103740001244846104774462B26D0123284602B0BA
:10375000BDE8704000F006B810000020A8AE0208D6
:10376000BFAE0208F0B508B9106888B1044620461B
:1037700014F8015B0F4617F8016B1EB965B91560A7
:10378000284605E0B542F6D1002BF0D11460037055
:10379000F0BD1C460CE015B914F8013B0E4616F8B6
:1037A000015BAB42F7D1002BF3D0002304F8013CBE
:1037B0001460EDE7012B2DE9F04701D0242B06D949
:1037C000FFF736FD162303600020BDE8F087DFF821
:1037D000E4C00D462E4615F8014B14F80C7017F096
:1037E0000807F7D12D2C32D12C780127B51C002BDE
:1037F0005BD0102B09D1302C07D12C7804F0DF04DA
:10380000582C4DD16C781023023507F1004808F18F
:10381000FF384FF0000CB8FBF3F9664603FB198A3A
:10382000A4F1300EBEF1090F16D87446A34224DD70
:10383000BCF1000F1EDBB1451CD301D1A24519DB41
:1038400006FB03464FF0010C15F8014BE8E72B2C63
:1038500004BF2C78B51CCAE7A4F1410EBEF1190FC4
:1038600001D8373CE2E7A4F1610EBEF1190F04D88C
:10387000573CDBE74FF0FF3CE6E7BCF1000F05DA11
:1038800022230360464642B930469EE707B176429E
:10389000002AF9D0BCF1000F00D0691E1160F3E7D7
:1038A0003024002BB1D10823AFE7302CA5D00A2358
:1038B000ABE700BF58AF0208FFF77CBF13460A46CC
:1038C000014602480068FFF775BF00BF10000020E6
:1038D000F8B50E461446054618B183690BB900F0D9
:1038E00011FA214B9C422BD16C68A369A360A38978
:1038F0001A072FD523696BB323692068C01A63693F
:10390000F6B28342374604DC2146284600F066F9C9
:1039100030BBA368013BA36023685A1C22601E7061
:1039200063690130834204D0A389DB0706D50A2EE0
:1039300004D12146284600F051F988B93846F8BD2F
:103940000A4B9C4201D1AC68CFE7094B9C4208BFAF
:10395000EC68CAE72146284600F01EF80028CBD0C4
:103960004FF0FF37EAE700BF78B0020898B00208CE
:1039700058B0020838B5074D0446084611460022E3
:103980002A601A46FEF7F8FB431C02D12B6803B1EC
:10399000236038BD24180020324B70B51D680646E0
:1039A0000C4625B1AB6913B9284600F0ABF92E4B94
:1039B0009C420FD16C68A389B4F90C2019072CD450
:1039C000DD0611D40923336042F04003A3814FF098
:1039D000FF303EE0254B9C4201D1AC68EBE7244B25
:1039E0009C4208BFEC68E6E7580712D5616B41B10D
:1039F00004F14403994202D0304600F0C1FA00239A
:103A00006363A38923F02403A381002363602369F4
:103A10002360A38943F00803A38123694BB9A389D9
:103A200003F42073B3F5007F03D02146304600F045
:103A300053FAA089B4F90C2010F001030AD0002336
:103A4000A36063695B42A361236943B910F08000FE
:103A5000BAD170BD810758BF6369A360F4E7002045
:103A6000F7E700BF1000002078B0020898B0020805
:103A700058B002081FB514461A46094B1B68054684
:103A8000D8684CB1074B0091CDE9013406492B466B
:103A900000F0B6F901F026FB044B1C46F3E700BF2B
:103AA000100000201BAF020828AF020856AF020822
:103AB00038B5064D0023044608462B60FEF76AFB26
:103AC000431C02D12B6803B1236038BD24180020A9
:103AD0008A892DE9F041054610070C4658D44B68F9
:103AE000002B05DC0B6C002B02DC0020BDE8F08114
:103AF000E66A002EF9D0002312F480522F682B6062
:103B000032D0606DA3895A0705D56368C01A636B0C
:103B10000BB1236CC01A00230246E66A216A2846CC
:103B2000B047431CA38906D129681D292CD82A4AED
:103B3000CA40D60728D500226260D90422692260D3
:103B400004D5421C01D12B6803B96065616B2F60FD
:103B50000029CAD004F14403994202D0284600F05B
:103B60000FFA00206063C1E7216A01232846B047AD
:103B7000411CC7D12B68002BC4D01D2B01D0162BA4
:103B800001D12F60B1E7A38943F04003A381ADE7E2
:103B90000F69002FA9D093070E6808BF4B690F600B
:103BA00018BF0023A6EB07088B60B8F1000F9CDD5F
:103BB000216AA66A43463A462846B047002806DCF2
:103BC000A38943F04003A3814FF0FF308EE7074401
:103BD000A8EB0008E9E700BF0100402038B50B69F9
:103BE00005460C4613B90025284638BD18B183692F
:103BF0000BB900F087F8144B9C421BD16C68B4F9E8
:103C00000C30002BEFD0626ED00704D4990502D49B
:103C1000A06D00F027F928462146FFF759FF636E93
:103C2000DA070546E0D4A3899B05DDD4A06D00F03A
:103C30001AF9D9E7054B9C4201D1AC68DFE7044B88
:103C40009C4208BFEC68DAE778B0020898B0020836
:103C500058B00208002310B50446C0E90033C0E99B
:103C60000433836081814366C281836119460822DF
:103C70005C30FFF715FB054B6362054BA362054BF8
:103C8000E362054B2462236310BD00BFD9350008F1
:103C9000FF350008373600085B360008014900F0A0
:103CA000C1B800BFDD3B000870B568224D1E55430A
:103CB0000E4605F17401FFF731FB044640B10021C7
:103CC000C0E900160C30A06005F16802FFF7E8FAC1
:103CD000204670BD014800F0C5B800BF2118002083
:103CE000014800F0C0B800BF21180020014800F0D2
:103CF000B9B800BF22180020014800F0B4B800BFD6
:103D00002218002010B50446FFF7F0FFA3691BB18D
:103D1000BDE81040FFF7F0BFC4E912332365134B31
:103D2000134A1B68A262A34204BF0123A361204679
:103D300000F020F86060204600F01CF8A0602046EB
:103D400000F018F80022E06004216068FFF782FFAD
:103D5000A06801220921FFF77DFFE06802221221FD
:103D6000FFF778FF0123A361D2E700BFA4AE0208EA
:103D70009D3C0008F8B50746FFF7ACFF1E4B1E68D8
:103D8000B36913B93046FFF7BDFF4836D6E90134B1
:103D9000013B03D533680BB33668F7E7B4F90C5031
:103DA000D5B9164BE36004F15800656600F059F888
:103DB000FFF796FFC4E90155C4E904552560A561E4
:103DC0000822294604F15C00FFF76AFAC4E90D55A0
:103DD000C4E912552046F8BD6834D9E704213846B5
:103DE000FFF762FF044630600028D5D1FFF778FF67
:103DF0000C233B60EEE700BFA4AE02080100FFFF0A
:103E00000EB403B5014603AB054853F8042B006814
:103E1000019300F059FC02B05DF804EB03B0704769
:103E2000100000202DE9F8430646884600F14804BA
:103E30000027D4E90195B9F1010905D52468002CC2
:103E4000F7D13846BDE8F883AB89012B07D9B5F91E
:103E50000E30013303D029463046C047074368354A
:103E6000E9E770477047704738B5074D0446084684
:103E7000114600222A601A46FEF796F9431C02D129
:103E80002B6803B1236038BD2418002070B50E469E
:103E9000B1F90E10002996B014461D4608DAB6F99D
:103EA0000C3000222A601A0610D44FF480630EE012
:103EB0006A4601F01FF90028F1DB019A02F4704212
:103EC000A2F500535A425A412A60EEE740230020EF
:103ED000236016B070BD00008B8973B59D07064640
:103EE0000C4607D504F14703236023610123636176
:103EF00002B070BD01AB6A46FFF7C8FF00990546E6
:103F00003046FFF70BFA48B9B4F90C309A05EFD4F4
:103F100023F0030343F00203A381E3E70D4BB362F5
:103F2000A389206043F08003A381009B6361019B10
:103F300020615BB1B4F90E10304601F0EDF828B104
:103F4000A38923F0030343F00103A381A089054360
:103F5000A581CDE79D3C0008024B01461868FFF79C
:103F6000DDB900BF100000200148FFF77BBF00BF94
:103F7000201800200148FFF776BF00BF201800205E
:103F800037B5002944D051F8043C0190002BA1F131
:103F90000404B8BFE418FFF7E7FF1E4A019813684E
:103FA00033B96360146003B0BDE83040FFF7E2BF8F
:103FB000A34208D9256861198B4201BF19685B6863
:103FC00049192160EDE71A465B680BB1A342FAD9A3
:103FD00011685518A5420BD1246821445418A342F6
:103FE0001160E0D11C685B68536021441160DAE71E
:103FF00002D90C230360D6E7256861198B4204BF00
:1040000019685B68636004BF491921605460CAE79E
:1040100003B030BD181800202DE9F0478E689E428D
:1040200082460C4690461F4638D88A8912F4906F13
:1040300032D025680969A5EB0109656905EB4505DD
:1040400005EBD57501334B446D109D4238BF1D46BD
:10405000530531D52946FFF761F9064650B90C23BF
:10406000CAF80030A38943F04003A3814FF0FF302A
:10407000BDE8F08721694A46FFF704F9A38923F4D4
:10408000906343F08003A381266165614E44A5EBF4
:1040900009052660A5603E46BE4200D93E4620681E
:1040A0003246414601F048F8A3689B1BA360236891
:1040B000334423600020DBE72A4601F057F8064628
:1040C0000028E1D121695046FFF75AFFC7E70000F9
:1040D0002DE9F04F98468B891B069DB007460D468B
:1040E00014460ED50B6963B94021FFF717F9286014
:1040F000286120B90C233B604FF0FF30D1E0402312
:104100006B610023099320238DF82930CDF80C80B2
:104110003023DFF8A8818DF82A304FF001092346BB
:104120009A4613F8012B0AB1252AF9D1BAEB040BF0
:104130000BD05B46224629463846FFF76DFF01301B
:1041400000F0AA80099A5A4409929AF80030002B8C
:1041500000F0A28000234FF0FF32CDE905230AF1E1
:10416000010A049307938DF853301A93544605229D
:1041700014F8011B5148FCF733F8049AD8B9D0065B
:1041800044BF20238DF85330110744BF2B238DF8F3
:1041900053309AF800302A2B15D0079A5446002045
:1041A0004FF00A0C214611F8013B303B092B4ED948
:1041B000B0B1079214E0A0EB080309FA03F313432C
:1041C0000493A246D2E7039B191D1B680391002BA1
:1041D000BBBF5B4242F0020207930793B8BF049251
:1041E00023782E2B0CD163782A2B35D1039B1A1DF3
:1041F0001B680392002BB8BF4FF0FF3302340593C6
:10420000DFF8C8A0217803225046FBF7E9FF40B150
:104210004023A0EB0A0003FA00F0049B034301349F
:10422000049314F8011B26488DF828100622FBF78A
:10423000D7FF002838D0234B1BBB039B073323F049
:10424000070308330393099B3344099367E70CFB87
:1042500002320C460120A5E70023013405931946DC
:104260004FF00A0C204610F8012B303A092A03D9E6
:10427000002BC5D00591C3E70CFB012104460123A7
:10428000F0E703AB00932A460F4B04A93846AFF37F
:104290000080421C0646D6D1AB895B063FF52CAFA9
:1042A00009981DB0BDE8F08F03AB00932A46064B7A
:1042B00004A9384600F0A6FBEBE700BFB8B002083F
:1042C000C2B002080000000019400008BEB0020899
:1042D00038B54B1C144603D14FF0FF35284638BD86
:1042E000938923F020039381636B5268CDB28BB125
:1042F000A36B934208DD23685A1E226003F8015C19
:10430000636801336360E9E7214600F0B1FE0028ED
:10431000F1D0E1E72169236851B1994208D213F83D
:10432000011CA94204D1013B013223606260D5E740
:10433000C4E90F3204F1440363630323A3632346F8
:1043400003F8465F23600123DCE710B50C46496B98
:1043500069B104F14403994201D0FFF711FE236CC7
:1043600063600020606313B1E36B236010BD2369B9
:10437000236000236360A38943F02003A3814FF0EF
:10438000FF30F3E72DE9F0470C46ADF5227D002123
:10439000CDE94411A649A0910DF10408A549A64F05
:1043A000DFF89892CDF818810646A1910093137812
:1043B000002B00F05A81D95D11F0080102F10105CE
:1043C00019D06368002B0FDD23681A78BA5C1207D6
:1043D00001D42A46EBE7459A0132459262680133DF
:1043E000013A62602360ECE7A19B21463046984782
:1043F0000028E9D0EDE7252B12D09A466368002B00
:1044000040F3918022681378534540F02E81636811
:10441000013B6360459B0132013322604593D8E73D
:104420004191439153782A2B02BF1023951C41934D
:104430000A22AA461AF8011BA1F13003092B1DD943
:104440007E480322FBF7CCFE40B10123A0EB09001C
:1044500003FA00F0419B18434190554615F8013B83
:10446000782B06D8572B10D8252BC6D056D8002B22
:1044700064D0032347930A23429371E0439B02FBDA
:104480000311303943915546D3E7A3F15802202A4E
:10449000EFD801A151F822F04B4500087344000801
:1044A00073440008A94500087344000873440008D9
:1044B0007344000873440008734400087344000800
:1044C00073440008BF4500089545000823450008CF
:1044D0002345000823450008734400089945000857
:1044E00073440008734400087344000873440008D0
:1044F000CF450008A1450008434500087344000863
:1045000073440008CB450008734400089545000833
:1045100073440008734400084B450008453B022BD8
:10452000A7D805231BE0A19B2146304698470028C9
:104530003FF468AF4498002840F08D804FF0FF3082
:104540008FE0419A42F020024192419A42F4007277
:10455000419210226F2B429234BF032304234793CE
:104560006368002B42DD419B590604D423681A7806
:10457000BA5C120741D4479B022B50DC6B462246A3
:1045800041A9304600F064FB01286ED002287FF478
:1045900020AFCFE70A22DDE7002342930323DEE7C3
:1045A000082342930423DAE72946404600F0B4FC8E
:1045B000419B43F04003419305460123CFE7419BD4
:1045C00043F0400341930023C9E70223C7E7419822
:1045D000C3063FF5FEAE009B459A191D00911B686E
:1045E00010F0010F14BF1A801A60F2E6A19B214659
:1045F000304698470028B6D09CE7459A013245924C
:104600006268013A002A626002DD01332360ADE78F
:10461000A19B2146304698470028A7D08AE7042B63
:104620000EDC6B46224641A9304600F06BFBABE73F
:10463000D14200084B43000858AF0208BEB0020840
:104640000B4B002B3FF4C5AE6B46224641A93046CA
:10465000AFF3008098E7A38913F0400F18BF4FF025
:10466000FF300DF5227DBDE8F0874498F9E700BFE3
:10467000000000009368013B002B10B4936008DA3F
:104680009469A34201DB0A2903D15DF8044BFFF7CB
:104690001FB91368581C1060197008465DF8044B68
:1046A0007047F8B506460F461446D518AC4201D1FE
:1046B000002007E014F8011B3A463046FFF7DAFF06
:1046C000431CF3D1F8BD00002DE9F04F0D469DB01D
:1046D00014469846064618B183690BB9FFF712FBDA
:1046E000894B9D421BD175686B6ED90705D4AB8988
:1046F0009A0502D4A86DFFF7B5FBAB891B0701D55E
:104700002B69EBB929463046FFF746F9C0B16B6E0D
:10471000DC070ED54FF0FF301DB0BDE8F08F7B4BAE
:104720009D4201D1B568DFE7794B9D4208BFF5682E
:10473000DAE7AB899805EDD4A86DFFF794FBE9E7BC
:104740000023099320238DF82930CDF80C803023E5
:10475000DFF8C0818DF82A304FF0010923469A46D0
:1047600013F8012B0AB1252AF9D1BAEB040B0BD0AF
:104770005B46224629463046FFF793FF013000F0A2
:10478000AA80099A5A4409929AF80030002B00F046
:10479000A28000234FF0FF32CDE905230AF1010A80
:1047A000049307938DF853301A935446052214F856
:1047B000011B5848FBF714FD049AD8B9D10644BF31
:1047C00020238DF85330130744BF2B238DF853302B
:1047D0009AF800302A2B15D0079A544600204FF043
:1047E0000A0C214611F8013B303B092B4ED9B0B1E0
:1047F000079214E0A0EB080309FA03F313430493B0
:10480000A246D2E7039B191D1B680391002BBBBF77
:104810005B4242F0020207930793B8BF04922378E9
:104820002E2B0CD163782A2B35D1039B1A1D1B68C4
:104830000392002BB8BF4FF0FF3302340593DFF82B
:10484000E4A0217803225046FBF7CAFC40B1402384
:10485000A0EB0A0003FA00F0049B03430134049325
:1048600014F8011B2C488DF828100622FBF7B8FC21
:1048700000283FD0294B1BBB039B073323F00703C2
:1048800008330393099B3B44099367E70CFB02320F
:104890000C460120A5E700230134059319464FF08B
:1048A0000A0C204610F8012B303A092A03D9002BB4
:1048B000C5D00591C3E70CFB012104460123F0E7B5
:1048C00003AB00932A46164B04A93046AFF3008091
:1048D0000746781CD6D16B6ED90705D4AB899A05EB
:1048E00002D4A86DFFF7BFFAAB895B063FF512AFA4
:1048F000099811E703AB00932A46094B04A93046F7
:1049000000F080F8E4E700BF78B0020898B0020831
:1049100058B00208B8B00208C2B002080000000097
:10492000A3460008BEB002082DE9F0471646994696
:104930008A680B69DDF820809342B8BF1346336064
:1049400091F8432007460C460AB1013333602368CF
:10495000990642BF336802333360256815F00605B7
:1049600006D104F1190AE36832689B1AAB4226DCCF
:1049700094F84320131E226818BF012392062BD4FB
:1049800004F1430249463846C04701301ED023682F
:10499000E568326803F00603042B08BFAD1AA3686C
:1049A00022690CBF25EAE57500259342C4BF9B1A16
:1049B000ED1800261A34B5421AD1002008E0012370
:1049C000524649463846C047013003D14FF0FF30C8
:1049D000BDE8F0870135C6E7E1185A1C302081F8A0
:1049E0004300224494F8451082F843100233C7E78D
:1049F0000123224649463846C0470130E6D00136F9
:104A0000D9E700002DE9FF470F7E0C9D782F9146D6
:104A100080460C469A4601F1430207D8622F0AD815
:104A2000002F00F0D880582F00F0A38004F1420539
:104A300084F842703AE0A7F16303152BF6D801A180
:104A400051F823F09D4A0008B14A00082D4A000899
:104A50002D4A00082D4A00082D4A0008B14A0008D6
:104A60002D4A00082D4A00082D4A00082D4A00084A
:104A7000BD4B0008E14A00089F4B00082D4A000882
:104A80002D4A0008DF4B00082D4A0008E14A0008C3
:104A90002D4A00082D4A0008A74B00082B681A1D54
:104AA0001B682A6004F1420584F842300123A3E028
:104AB00020682968060601F104030AD50E682B60F8
:104AC000002E03DA2D23764284F843305E480A2311
:104AD00019E00E682B6010F0400F18BF36B2EFE7F8
:104AE0002B682068191D2960010601D51E6802E0A7
:104AF0004606FBD51E8854486F2F0CBF08230A2397
:104B0000002184F843106568A560002DA2BF2168CC
:104B100021F0040121600EB9002D4DD01546B6FBE1
:104B2000F3F103FB1167C75D05F8017D3746BB4212
:104B30000E46F4D9082B0BD12368DE0708D523696C
:104B400061689942DEBF302305F8013C05F1FF356D
:104B5000521B2261CDF800A04B4603AA21464046D5
:104B6000FFF7E2FE01304CD14FF0FF3004B0BDE85A
:104B7000F087354881F845702968236851F8046B3F
:104B800029601D0614D5DF0744BF43F020032360CE
:104B90001EB9236823F0200323601023B0E72368A5
:104BA00043F0200323607823284884F84530E3E766
:104BB000590648BFB6B2E6E71546BBE72B6826683C
:104BC0006169181D286035061B6801D5196002E06F
:104BD0007006FBD51980002323611546BAE72B68C0
:104BE0001A1D2A601D68626800212846FBF7F8FA42
:104BF00008B1401B606063682361002384F8433080
:104C0000A8E723692A4649464046D0470130ABD041
:104C100023689B0713D4E068039B9842B8BF1846EB
:104C2000A4E70123324649464046D04701309BD095
:104C30000135E36803995B1AAB42F2DCEBE7002530
:104C400004F11906F5E700BFC9B00208DAB002089E
:104C50002DE9F84315468A6880460C4632B98A69C0
:104C6000002A0CBF01224FF0FF328A602268DFF871
:104C70009090D1065FBF1A68111D19601668002751
:104C8000A06988B1012807D12A6811786269525C4D
:104C900052B9002F31D022E0022820D12B681B7896
:104CA00013F809301B071AD42368DA065EBF2B6895
:104CB0001B7806F8013B2A686B6801322A60A268FB
:104CC000013B013A6B600137A26042B1002BD7DC97
:104CD000D4F880312946404698470028D0D0236830
:104CE00013F0100305D1E2680132E260A26902B15B
:104CF000337023693B4423610020BDE8F88300BF83
:104D000058AF02082DE9F04F9846764B0C46824684
:104D1000164693E8070087B003AB83E80700724BA1
:104D2000A169724A032918BF1A46A36801925A1E44
:104D3000B2F5AE7F88BF6FF4AE75274682BF03EB36
:104D4000050940F25D13A36057F81C3B43F4506320
:104D500098BF4FF0000923603D464FF0000B3168CB
:104D600003AB097853F82B000222FBF739FA28B37A
:104D7000BBF1010F59D162682AB92268082342F4B5
:104D8000007263602260226822F4A0622260A2683E
:104D9000511EA16092B13268511C3160127805F841
:104DA000012B7268013A002A726007DCD4F8802176
:104DB000314650469047002840F085800BF1010BAA
:104DC000BBF1030FCBD163680BB90A23636063683F
:104DD00047496069C91A00F09FF84FF0000BA368BB
:104DE0002268002B3DD03168606991F800C010F84E
:104DF0000C00002835D0BCF1300F24D1100522D58D
:104E00000BF1010BB9F1000F03D0013309F1FF39A8
:104E1000A3607368013B002B73601BDD33680133B3
:104E20003360A368013BA360D9E7BBF1020FAED1A9
:104E3000226802F4C061B1F5007FBFD11023636026
:104E400042F48072A2E722F4106222600B7805F827
:104E5000013BDEE7D4F880313146504698470028C0
:104E6000DFD02368DB050DD5BD4209D915F8011C3B
:104E7000D4F87C3132465046984705F1FF394D460B
:104E8000BD422DD0226812F0100213D12A7063683F
:104E9000019E39465046B0472168D8F8003011F0DD
:104EA000200F13D01A1DC8F800201B681860E36893
:104EB0000133E360ED1BAB4425695D4425610020AF
:104EC00007B0BDE8F08F4FF0000BCAE71A1DC8F815
:104ED00000201B6811F0010F14BF18801860E6E76E
:104EE0000120EDE7B85200086D500008B9380008FD
:104EF00004B1020838B5074D0446084611460022A1
:104F00002A601A46FDF728F9431C02D12B6803B129
:104F1000236038BD2418002070B50B7804465E2B42
:104F20000BBF4B78481C881C002208BF0122611E61
:104F300004F1FF0501F8012FA942FBD10BB901389B
:104F400070BD82F00102E2540546284610F8011BAC
:104F50002D2906D05D29F3D009B92846F0E70B4684
:104F6000F1E76E785D2EFAD0B342F8DC02351946CF
:104F700001318E426254FBDCF11A0139581CB342F4
:104F8000A8BF00214318E0E72DE9F043364F8646DD
:104F90000D46284615F8014BE65D16F00806F8D1D7
:104FA0002D2C2FD12C780126851C002B57D0102BAF
:104FB00009D1302C07D1287800F0DF00582849D1DA
:104FC0006C78102302354FF0FF380027B8FBF3F858
:104FD00003FB08F96FEA09093846A4F1300CBCF16B
:104FE000090F14D86446A34222DD002F1DDB804543
:104FF0001BD301D1A14518DB00FB0340012715F8A5
:10500000014BEAE72B2C04BF2C78851CCDE7A4F1DB
:10501000410CBCF1190F01D8373CE4E7A4F1610C55
:10502000BCF1190F04D8573CDDE74FF0FF37E6E736
:10503000002F07DA2223CEF800304FF0FF3032B9CC
:10504000BDE8F08306B14042002AF9D007B1691EDD
:105050001160F5E73024002BB5D10823B3E7302CDD
:10506000A9D00A23AFE700BF58AF0208FFF78CBFF3
:105070002DE9F0410C46496B04F1440399421DD1DE
:105080004FF48061FEF74AF918B94FF0FF30BDE8E0
:10509000F0814FF48063A36394F84630606380F836
:1050A000FF3394F8453080F8FE3394F8443080F8AC
:1050B000FD3300F2FD3020600020E8E7A66B7700AA
:1050C0003A4600F053F805460028DED000EB06080B
:1050D000014632464046FEF7D5F8C4E90D57C4F8FC
:1050E0000080E9E708B5062000F098F80120FDF7F8
:1050F0002DF8000038B5074D002304460846114638
:105100002B60FDF74AF8431C02D12B6803B12360E2
:1051100038BD00BF2418002038B5064D00230446D2
:1051200008462B60FDF73EF8431C02D12B6803B103
:10513000236038BD24180020884210B501EB02041A
:1051400002D98442234607D8431EA14208D011F851
:10515000012B03F8012FF8E7024401468A4200D1EF
:1051600010BD13F8014D02F8014DF7E72DE9F041AC
:10517000804614460E4621B9BDE8F0411146FEF7BF
:10518000CDB82AB9FEF7FCFE25462846BDE8F081D9
:1051900000F060F88442074602D8B4EB500F12D8F2
:1051A00021464046FEF7BAF805460028EDD0BC423D
:1051B0002246314628BF3A46FEF764F8314640465B
:1051C000FEF7DEFEE1E73546DFE71F2938B5044686
:1051D0000D4604D9162303604FF0FF3038BD426CF2
:1051E00012B152F821304BB9204600F031F82A466E
:1051F00001462046BDE8384000F018B8012B0AD01F
:10520000591C03D1162303600120E7E7002442F86C
:105210002540284698470020E0E70000024B014661
:105220001868FFF7D2BF00BF1000002038B5074D47
:1052300000230446084611462B60FCF77FFF431C01
:1052400002D12B6803B1236038BD00BF24180020B1
:10525000FCF772BF51F8043C181F002BBCBF0B5861
:10526000C0187047044A05491368002B08BF0B4655
:105270001844106018467047281800203018002085
:10528000F8B500BFF8BC08BC9E467047F8B500BF33
:08529000F8BC08BC9E46704703
:10529800392C00340200000000C13000850078007D
:1052A800000E1403110731C148080F0C31360F00E6
:1052B800EBB00208EEB00208F1B00208746F706932
:1052C800632F65737033326174547800746F70693A
:1052D800632F657370333261745278002C000000BC
:1052E80022255B5E225D22000D0A41540D0A000052
:1052F8004F4B00004552524F5200000041542B437F
:10530800574A41503D222573222C222573220D0A2B
:105318000000000041542B43574A41503D22257359
:10532800222C222573222C222573220D0A0000002C
:105338000D0A4F4B0D0A00000D0A4641494C0D0A53
:10534800000000000D0A4552524F520D0A0000009D
:1053580041542B43574A41503F0D0A003A2200005E
:105368004E6F20415000000041542B434950534E8A
:1053780054504346473D25642C25642C222573222E
:105388002C222573222C222573220D0A00000000EE
:1053980041542B434950534E54504346473D25648E
:1053A8002C25642C222573222C222573220D0A0019
:1053B80041542B434950534E54504346473D25646E
:1053C8002C25642C222573220D0A00002B54494DEC
:1053D800455F5550444154454400000041542B4317
:1053E8004950534E545054494D453F0D0A00000052
:1053F8002B434950534E545054494D453A000000F0
:105408002B434950534E545054494D453A25337314
:1054180020253373202568687520256868753A2526
:105428006868753A25686875202568750000000069
:10543800706F6F6C2E6E74702E6F726700000000B4
:1054480041542B4D515454555345524346473D25DD
:10545800752C25642C222573222C222573222C22BC
:105468002573222C302C302C222573220D0A0000A3
:1054780041542B4D515454434F4E4E3D25752C22CB
:105488002573222C25752C25640D0A002B4D5154AB
:1054980054434F4E4E4543544544000041542B4D10
:1054A800515454434F4E4E3F0D0A00002B4D51545A
:1054B80054434F4E4E3A0000257025702570000069
:1054C8004A70776F6C666500313233343536373859
:1054D8003930000061316B3761737768766E7463B9
:1054E800672D6174732E696F742E75732D776573CC
:1054F800742D312E616D617A6F6E6177732E636FD3
:105508006D00000041542B4D5154545055425241A6
:10551800573D25752C222573222C25752C302C30CF
:105528000D0A00002B4D5154545055423A4F4B0030
:105538002B4D5154545055423A4641494C000000B5
:1055480020303B3020303B3020303B3020303B3067
:1055580020303B3020303B3020303B3020303B3057
:1055680020303B3020303B3020303B3020303B3047
:1055780020303B3020303B3020303B3020303B3037
:1055880020303B3020303B3020303B3020303B3027
:1055980020303B3020303B3020303B3000000000D2
:1055A80041542B4D5154545355423D25752C2225B9
:1055B80073222C300D0A000041542B4D5154545580
:1055C8004E5355423D25752C222573220D0A0000A5
:1055D8000A4D6F64652069733A2025580A00000057
:1055E800088227000F312B0C0E084EF137071003E5
:1055F8000E090000496E69742053756363657373FF
:1056080000000000496E6974204661696C65640099
:105618006161616161616161000000004A657265F4
:105628006D7920576F6C66652773206950686F6EB7
:10563800650000002B4D5154545355425245435672
:1056480000000000FFFBFFFBFFFBFFFBFFFCFFFB75
:10565800FFFBFFFBFFDAFFB9FF79FF9ACE789D14B5
:105668009CF49CD494B394B394938C938C928C9222
:105678008C938C938C728C728C728C728C728472F8
:1056880084728472847284527C527C317C317C3185
:105698007C327C527C527C527C317C317C317C1156
:1056A80074117411741174117411741174117411CA
:1056B8007411741173F073F06BD06BD073F173F1D4
:1056C80073F173F16BF16BF173F06BF073D073D00E
:1056D8006BD16BD16BB16BB163D063B063D063B086
:1056E80063B063B063B063B063906390639063909A
:1056F8005B705B6F5B4F5B6F5B4E534E532E532E4D
:10570800530E52EE530D4AED4AED4ACD4ACC42AC07
:10571800428C3A6B3A6B3A4A320A29C919671967B7
:105728003A6B530E5B4F532E530E4ACD42AC428C0C
:105738003A6B3A6B3A6B3A4B3A4B3A4B3A4B3A4BD9
:105748003A4B3A4B3A4B322A322A324B324B324B93
:10575800322A322A322A322A322A322A322A322A61
:10576800322A322A322A320A320A320A320A320AF1
:10577800320A320A320A320A320A320A320A320A41
:10578800320A29E92A0929E929E929E929E929E936
:1057980029E929E929C829C829E929E929E929E9B3
:1057A80029C829C829C829C829C829C829C829C869
:1057B80029C829C929C829C829C829C829C829C858
:1057C80029C829C939EA426B52EB5B6C5B4C52EB36
:1057D800424931657BACC5D3D633D613C5D2BD712A
:1057E800B571B571B510ACEFACEFA4CFA4CF83ED14
:1057F800630A6B4C630B5AEB5AEB632B630A6B2BF4
:105808006B2C6B2C738D6B6D7BAE6B4B734C7BADC4
:10581800944FA4B0A4B09C8F9C8F9CAF9C8F9C8FFE
:105828009C8F9C8F9C8F9C8F9C8F9CAF9C8F948E01
:10583800946E946E946E946E946E9C8E9CAF9CAF96
:105848009CAF9CAF9C8E948E9C8E9CAFA4AFACCF2B
:10585800ACCFACCFA4CFA4AF9C8E9C8E9CAE9CAF9B
:10586800A4CFA4EFACEFACCFA4CFA4CFA4AEA4CF69
:10587800ACEFACEFA4CFACCFACCFA4CFA48E9C6ED2
:105888009C6EA4AFA4AFA4CFACEFACEFB510B5300D
:10589800AD0FB510ACEFACEFB510AD0FACEFB51068
:1058A800AD0FB530B510B510B530ACEFB530B5109B
:1058B800AD10ACEFACEFACF0A4CFACCFACD0ACD06B
:1058C800ACD09C8EFFFBFFFBFFFBFFFCFFFCFFFB4C
:1058D800FFFBFFFBFFB9FF99FF9AEF19A5339D1452
:1058E8009CD49CD494B394B394938C938C928C92C0
:1058F8008C928C928C728C72847284728C72847288
:1059080084738472847284527C527C317C317C3101
:105918007C317C317C527C327C327C317C317C1114
:105928007411741174117411741174117411741147
:105938007411741173F073F073F173F173F173F1FF
:1059480073F173F16BF16BF173F073F073F073F142
:105958006BD16BD16BD16BD16BD06BD063B063B0B3
:105968006BD16BD063D063B063B063906390639086
:1059780063705B6F5B6F5B6F5B4F534E5B4E5B4E51
:105988005B2E530E530E4AED4AED4AED4ACC4ACCF3
:1059980042AC428B3A6B322A320A29C91967196715
:1059A8003A6B532E5B4F532E530E4ACD42AC428C6A
:1059B8003A6B3A6B3A6B3A6B3A6B3A6B3A6B3A4BD7
:1059C8003A4B3A4B3A4B3A4B322A324B324B324BE8
:1059D800322A322A322A322A322A322A322A322ADF
:1059E800322A322A322A320A320A320A320A320A6F
:1059F800320A320A320A2A0A320A29E9320A320AF1
:105A080029E929E92A0929E929E929E929E929E9DD
:105A180029E929E929C829C829E929E929E929E930
:105A280029C829C829C829C829C829C829C829C8E6
:105A380029C829C829C829C829C829C829C829C8D6
:105A480029C829C929A93A0A426A52EB52EB4AAA3B
:105A58004249318583CDCDF4D633D613CDD2C59105
:105A6800BD91BD71B530B530AD10A4CF9CAF83CC1E
:105A780062EA630B634C6B4C6B4C632B6B4C630B94
:105A88006B2C736D6B4C736D7BAD738D736C83CDA9
:105A9800946F9C8F9C8F9C8F9C8F9C8E9C6E946E19
:105AA800948E9C8E948E948E9C8F9C8E9C8F9C8EB4
:105AB8009C8F948E946E946E9C8E9CAF9CAF9CAF82
:105AC8009CAF9CAF9CAF9CAE9C8EA4AFA4CFACCF38
